:020000040800F2
:1000000058E70124B503000899C9000811A30008A6
:1000100049C90008F90E000831300108000000004D
:1000200000000000000000000000000001DC0008EB
:10003000D11700080000000061D6000861DE00084A
:10004000D3030008D3030008D3030008D303000838
:10005000D3030008D3030008D3030008D303000828
:10006000D3030008D3030008D3030008C911000814
:10007000D9110008E9110008F91100080912000857
:10008000D3030008D3030008D3030008A91800080D
:10009000C9180008B9180008D9180008D3030008C7
:1000A000D3030008D3030008D3030008D3030008D8
:1000B00041E00008D3030008D3030008D30300087D
:1000C000D3030008D3030008D3030008D3030008B8
:1000D00009DB0008A9050108B9050108D3030008D8
:1000E000D3030008D30300080000000051E000081B
:1000F000D3030008D3030008D30300081912000833
:10010000D3030008D3030008D3030008D303000877
:10011000D303000851F50008D3030008D3030008F7
:1001200029120008D3030008D3030008391200087D
:1001300049120008D3030008D3030008D3030008C2
:1001400000000000000000000000000000000000AF
:10015000D3030008D3030008D3030008D303000827
:10016000D3030008D3030008D3030008D303000817
:10017000D303000879D40008D3030008000000006E
:10018000D3030008D3030008D3030008D3030008F7
:10019000D3030008D3030008D3030008D3030008E7
:1001A000D3030008D3030008D303000800000000B5
:1001B000D3030008D3030008D3030008D3030008C7
:1001C000D3030008D3030008000000000000000073
:1001D0000000000000000000D30300080000000041
:1001E000000000000000000000000000000000000F
:1001F0000000000000000000D3030008D303000843
:10020000D3030008D303000800000000D303000854
:10021000D3030008D3030008D3030008D303000866
:10022000D303000800000000D30300080000000012
:10023000D3030008D303000800000000D303000824
:10024000D3030008D3030008D3030008D303000836
:10025000D3030008D3030008D3030008D303000826
:10026000D3030008D3030008D3030008D303000816
:10027000D3030008D3030008D303000800000000E4
:10028000D3030008D3030008D3030008D3030008F6
:1002900000000000D3030008D303000800000000A2
:1002A00000000000D3030008D3030008D3030008B4
:1002B000D3030008D3030008D3030008E91800089B
:1002C000F9180008D3030008D303000800F002F86F
:1002D00000F060F80AA090E8000C82448344AAF180
:1002E0000107DA4501D100F055F8AFF2090EBAE87E
:1002F0000F0013F0010F18BFFB1A43F0010318475A
:100300006C7701008C7701000A444FF0000C10F864
:10031000013B13F0070408BF10F8014B1D1108BF83
:1003200010F8015B641E05D010F8016B641E01F823
:10033000016BF9D113F0080F1EBF10F8014BAD1C73
:100340000C1B09D16D1E58BF01F801CBFAD505E091
:1003500014F8016B01F8016B6D1EF9D59142D6D3EB
:10036000704700000023002400250026103A28BF13
:1003700078C1FBD8520728BF30C148BF0B60704717
:100380001FB516F0FCFC9DE8030000F0E5F91FBD69
:1003900010B510BD00F04CFA1146FFF7F1FF13F055
:1003A000B3FF00F06AFA03B4FFF7F2FF03BC00F0FA
:1003B0009BFA00000A4880470A4880470A480047DD
:1003C000FEE7FEE7FEE7FEE7FEE7FEE7FEE7FEE705
:1003D000FEE7FEE705480649064A074B704700005E
:1003E0007918000869DF0008CD02000858CF012401
:1003F00058E7012458D7012458D7012470B5064680
:1004000000F08EF9056806F10B0020F00704B442F5
:100410009CBF002070BD2B466A68BAB11068A0422C
:1004200010D304F1080188423CBF5068586007D3DC
:100430005168101941601168091B0160586014600F
:10044000101D70BD13465268002AE7D12146284688
:1004500000F06EF90028DED170BD70B50446051FAE
:1004600000F05EF90068002C14BF446870BD002CD9
:1004700018BFAC423CBF20466468F8D301680A1834
:10048000AA4218BF456003D12A680546114401609D
:1004900028684119A1421CBF6C6070BD6168696029
:1004A00021680844286070BD53EA020C00F069809E
:1004B0002DE9F04B4FF00006002B1FBFB3FA83F578
:1004C00003FA05F424FA05F65E4012BF1643B2FAA9
:1004D00082F502FA05F4C5F120051EBF22FA05FCDB
:1004E00044EA0C04203556EA044C4FEA144418BF81
:1004F000641C4FF000084FF00009904271EB030CB0
:1005000039D3002919BFB1FA81F701FA07F6B0FA19
:1005100080F700FA07F6C7F120071EBF20FA07FC94
:1005200046EA0C062037B6FBF4FCA7EB0507103FA4
:1005300007F01F0BCBF120062CFA06F60CFA0BFB8A
:1005400044BFB3460026202FA4BF5E464FF0000BE9
:100550005BEA060C08BF4FF0010B19EB0B0948EBE7
:100560000608ABFB027C06FB02CC0BFB03CCC01BDA
:1005700071EB0C01C1E70B46024641464846BDE817
:10058000F08B13B5084318BF4FF0FF300146AFF3AF
:100590000080BDE81C407047032A40F2308010F014
:1005A000030C00F0158011F8013BBCF1020F62440E
:1005B00098BF11F801CB00F8013B38BF11F8013B9F
:1005C000A2F1040298BF00F801CB38BF00F8013B4C
:1005D00011F0030300F02580083AC0F0088051F8BC
:1005E000043B083A51F804CBA0E80810F5E7121DC7
:1005F0005CBF51F8043B40F8043BAFF30080D207E6
:1006000024BF11F8013B11F801CB48BF11F8012BB1
:1006100024BF00F8013B00F801CB48BF00F8012BD4
:10062000704710B5203AC0F00B80B1E81850A0E830
:100630001850B1E81850A0E81850203ABFF4F5AFB0
:100640005FEA027C24BFB1E81850A0E8185044BF0C
:1006500018C918C0BDE810405FEA827C24BF51F879
:10066000043B40F8043B08BF7047D20728BF31F86D
:10067000023B48BF11F8012B28BF20F8023B48BFBE
:1006800000F8012B70474FF000020429C0F01280DF
:1006900010F0030C00F01B80CCF1040CBCF1020F35
:1006A00018BF00F8012BA8BF20F8022BA1EB0C010A
:1006B00000F00DB85FEAC17C24BF00F8012B00F800
:1006C000012B48BF00F8012B70474FF0000200B526
:1006D000134694469646203922BFA0E80C50A0E865
:1006E0000C50B1F12001BFF4F7AF090728BFA0E813
:1006F0000C5048BF0CC05DF804EB890028BF40F8DF
:10070000042B08BF704748BF20F8022B11F0804F20
:1007100018BF00F8012B7047704770477047000002
:100720000048704758020024704770477047704770
:1007300038B504460A4600206946AFF30080002819
:1007400008BF38BD02460099204600F04FF801204E
:1007500038BD012000F064B8F8B5AFF3008005465D
:1007600000200C46102000BF0646A819A0420DD953
:10077000324669460020AFF30080070008BF00F052
:100780004FF80098A04218BF0546C419FFF7C8FFEC
:1007900005600746F01D20F007004619284600F0C6
:1007A0000AF8B44208BFF8BDA21B31463868BDE85C
:1007B000F84000F01BB800210160C0E9011070474B
:1007C0001020704710B500F00DF8006810BD10B58E
:1007D000044600F007F8046010BD000000487047B0
:1007E000500200240048704750020024034640682D
:1007F0008C46002818BF88423CBF03464068F8D3A7
:1008000018681844884207D00CF1030020F0070054
:10081000001D411A521A0146081D0A60FFF71DBE4D
:1008200010B500F039F8BDE8104000F02FB870475F
:100830007546FFF7D3FFAE4605006946534620F0E4
:100840000700854618B020B5FFF7C4FDBDE820407D
:100850004FF000064FF000074FF000084FF0000B7C
:10086000AC46ACE8C009ACE8C009ACE8C009ACE8EB
:10087000C00921F007018D46704710B50446AFF35B
:1008800000802046BDE81040FFF78DBD002801D054
:1008900000F02AB87047000010B5012805D00021EB
:1008A00003A000F027F8012010BD09A1F8E700001F
:1008B00053494752544D454D3A204F7574206F6649
:1008C0002068656170206D656D6F727900000000B1
:1008D0003A2048656170206D656D6F727920636F95
:1008E000727275707465640001491820ABBEFEE732
:1008F0002600020070B505460C460A2000E06D1C7B
:1009000000F011F835B128780028F8D102E0641C15
:1009100000F009F814B120780028F8D1BDE8704043
:100920000A20AFF3008008B569468DF80000032067
:10093000ABBE08BD0000000080B543F638104CF691
:10094000C031C2F20040C2F201414FF4807208F09F
:100950003FFD42F6847040F20F41C2F20040C4F203
:100960000201006888426FF0080111DC6F22C4F2B6
:100970000202904222DC3F22C4F20202904239DCA1
:100980001022C4F2020290425CD0282254E000BF40
:1009900040F26F42C4F2020290421BDC40F23F423E
:1009A000C4F2020290422DDC40F21042C4F2020274
:1009B000904247D040F228423EE000BF9F22C4F25E
:1009C0000202904228DC7022C4F20202904239D026
:1009D000882231E040F29F42C4F20202904223DCBE
:1009E00040F27042C4F2020290422BD040F28842A0
:1009F00022E000BF4022C4F20202904222D05822DC
:100A00001AE000BF40F24042C4F20202904219D004
:100A100040F2584210E000BFA022C4F2020290420D
:100A200010D0B82208E000BF40F2A042C4F2020297
:100A3000904207D040F2B842C4F20202904218BF7E
:100A40006FF0040102681140016080BD00000000E9
:100A500010B54CF6C034C2F201442078AB283BD12B
:100A600094F83F00FD2818BF10BD41F64C50D4F853
:100A70000110C2F20040D4F80520C161D4F8091079
:100A8000C165B4F811100186B4F81310A0F8501025
:100A9000B4F81510A0F87010B4F81710C263D4F8A9
:100AA0000D20C2671E22A0F8901041F69070C2F28D
:100AB0000040D4F81910C0F8581240F27C6004F1DC
:100AC0001D01C2F20040FFF767FD40F29A6194F801
:100AD0003E00C2F20041087010BD0000000000009E
:100AE00041F64C5040F27853C2F20040C2F200434B
:100AF0004FF0AA0C90ED060A90ED0A1A90ED0E2A1E
:100B000031EE400A90ED123A33EE421A90ED1A2A75
:100B100090ED163A10EE101A32EE432A90ED223A7A
:100B2000C3F8021090ED1E4A33EE440A11EE102A6B
:100B300012EE101AC3F80620C3F80A10C16A5982CF
:100B4000C16C9982C16ED982D0F88C00188341F6AD
:100B5000907040F63451C2F20040C2F2004110EEF3
:100B6000102A406EC3F81A000868C3F81E001878EF
:100B7000D1F80310C3F82110194683F83F00FE2076
:100B800083F8400043F63810C3F80E20C2F200404C
:100B9000402201F801CF09F047BB0000000000002F
:100BA00040F600000121C5F60200012203F034BF27
:100BB00040F600000121C5F60200002203F02CBF20
:100BC000704700000000000040F600000821C5F654
:100BD0000200012203F020BF40F600000821C5F604
:100BE0000200002203F018BF704700000000000060
:100BF00010B5002808BF10BD4EF2180145F2003CA8
:100C0000CEF20001C0F2070C03E000BF013802047D
:100C10001AD051F804EC0B68002208E01A44A342F1
:100C2000A2EB0402234698BF72446245EED20C68E0
:100C3000A342F3D10C68A34204BF0C68A342EDD1D8
:100C40000C68A342F3D0E9E710BD000000000000EB
:100C500080B54EF21801C0EB0010CEF200014FEA51
:100C6000401E002351F804CC0A6808E01344824275
:100C7000A3EB0003024698BF634473450CD2086897
:100C80008242F3D10868824204BF08688242EDD1F3
:100C900008688242F3D0E9E780BD00000000000050
:100CA00010B5FFF78DFFFFF79FFF13F051F80446D3
:100CB00013F076F9204310BD2DE9F04F83B0029276
:100CC0000E460190FFF774FF922000F0C5F89220C5
:100CD00000F0C2F8552000F0BFF88046552000F023
:100CE000BBF88346552000F0B7F88246552000F047
:100CF000B3F80446552000F0AFF80746552000F041
:100D0000ABF80546FFF74CFF48EA0B2040F2C0095C
:100D100000B2C2F2004900EE100A4AEA042000B212
:100D200099ED001AB8EEC00A21EE000A01EE100A91
:100D300047EA052086ED000A00B299ED002A00EE90
:100D4000100AB8EEC11AB8EEC00A22EE011A86EDFA
:100D5000011A22EE000A86ED020AFFF73DFF80200D
:100D600000F07AF8552000F077F80646552000F09C
:100D700073F8552000F070F88246552000F06CF8AA
:100D80000546552000F068F88346552000F064F8C9
:100D90000446552000F060F80746552000F05CF846
:100DA0008046FFF711FF0F2E25D14AEA052099ED65
:100DB000011A00B2019900EE100A4BEA042000B2B9
:100DC000B8EEC00A21EE000A01EE100A47EA082038
:100DD00081ED000A00B299ED012A00EE100AB8EE8A
:100DE000C11AB8EEC00A22EE011A81ED011A22EEF4
:100DF000000A81ED020AFFF7DBFEA22000F02CF8CA
:100E0000A22000F029F8552000F026F804465520CD
:100E100000F022F80546FFF7C3FEE0004FF600039E
:100E200040EA55110022CFF6FF73B2EB902F18BFA6
:100E30001943B4EE001AB3EE072A00EE101A029816
:100E4000B8EEC00AA0EE012A80ED002A03B0BDE88A
:100E5000F08F00000000000080B582B08DF8070020
:100E600043F23870C2F200400DF107010DF10602A5
:100E700001234FF47A7CCDF800C006F0DDFE9DF82A
:100E8000060002B080BD000010B543F2C07004211E
:100E9000C2F2004007F0D4FE43F660243221C2F2D1
:100EA000004420460CF05CFC43F674210422C2F29C
:100EB00000412046BDE810400CF006BC00000000D8
:100EC00070B569B143F660260C460546C2F200468D
:100ED000304629460CF014FC013C05F10405F7D11D
:100EE00040F2BC200021C2F2004002220023006830
:100EF000BDE8704014F0D8BAFEE700000000000022
:100F000070B58AB043F2740502ACC2F20045002607
:100F10000220049001202146CDE9050628460796C7
:100F2000CDE9026602F058FD022102220023284684
:100F3000009602F099FD01210022284602F054FC9F
:100F40004FF000710022284602F04EFC01210122E0
:100F5000284602F00DFD284603F042FC43F214152A
:100F60002146C2F20045284602F036FD0221022247
:100F700000232846009602F077FD01210122284631
:100F800002F0F6FC01210022284602F02DFC4FF071
:100F900000710022284602F027FC284603F020FCBE
:100FA00043F2B4152146C2F20045284602F014FD72
:100FB0000221022200232846009602F055FD01215D
:100FC0000122284602F0D4FC01210022284602F02A
:100FD0000BFC4FF000710022284602F005FC284669
:100FE00003F0FEFB0AB070BD002070470000000057
:100FF000002070470000000010B542F6601441F276
:101000003B51C2F20044C2F20041002220460FF0E0
:101010003BFD40F63B512046C2F200410FF024FD5B
:10102000002010BD00000000B0B50968044612F0B1
:1010300003F842F660152146C2F2004528460FF03B
:1010400013FD28460FF0ECFC0020B0BD00000000AE
:10105000002070470000000010B542F66012C2F296
:101060000042D2F8BC22D2F81422002A1CBF012070
:1010700010BD42F660140A46C2F200440146204602
:101080000FF002FD2046BDE810400FF08DBD0000BE
:10109000B7EE002A90ED1D3A90ED1C4A30EE600A42
:1010A00090ED165A32EE432A90ED146AD0ED060AFE
:1010B000D0ED021AF1EE602A22EE042A90ED1A4ACF
:1010C000016E80ED180AC165A1EE432A90ED153A34
:1010D000A0EE034A80ED1C2A25EE023A90ED1F5A3D
:1010E000B1EE457A84FE455AA0EE063AB4EE474A80
:1010F000F1EE10FA35FE074A90ED1E5AB1EE456A40
:1011000090ED037A80ED1A4A33EE043A90ED084AE6
:1011100080ED047A83FE455AB4EE463AF1EE10FAB9
:1011200035FE063A90ED096A80ED193A33EE411A20
:10113000B1EE443AB0EEC15AB4EE456A9FED175A8B
:10114000F1EE10FA90ED056A35FE011A90ED015AA4
:1011500080ED031AA1EE056A31EE475A21EE855A59
:10116000C6FE600AB4EE626A90ED006AF1EE10FA13
:10117000A1EE065A30FEA26A80ED056A35EE060A37
:1011800080FE442AB4EE430AF1EE10FA32FE030A5E
:1011900080ED070A80ED200A704700BF00000000C4
:1011A00080EC030AC0ED092A80ED0A2AC0ED0B1A73
:1011B0007047000000000000018000994280838099
:1011C000817170470000000042F63C40C2F20040CE
:1011D00001F0DAB90000000042F6B440C2F200406B
:1011E00001F0D2B90000000042F6A450C2F2004063
:1011F00001F0CAB90000000042F61C60C2F20040D3
:1012000001F0C2B90000000042F62C50C2F20040CA
:1012100001F0BAB90000000042F6FC70C2F20040D2
:1012200001F0B2B90000000042F68470C2F2004042
:1012300001F0AAB90000000042F69460C2F200403A
:1012400001F0A2B90000000042F60C70C2F20040AA
:1012500001F09AB90000000040F20F42D0F800C03F
:10126000C4F20202944511DC6F22C4F202029445DA
:1012700022DC3F22C4F20202944539DC1022C4F27F
:10128000020294455AD0282254E000BF40F26F4237
:10129000C4F2020294451BDC40F23F42C4F2020257
:1012A00094452DDC40F21042C4F20202944545D030
:1012B00040F228423EE000BF9F22C4F20202944561
:1012C00028DC7022C4F20202944537D0882231E033
:1012D00040F29F42C4F20202944523DC40F2704285
:1012E000C4F20202944529D040F2884222E000BFB5
:1012F0004022C4F20202944520D058221AE000BFD6
:1013000040F24042C4F20202944517D040F25842E3
:1013100010E000BFA022C4F2020294450ED0B82211
:1013200008E000BF40F2B842C4F20202944505D082
:1013300040F2A042C4F20202944517D10CF0F80228
:101340004AF6AB23103ACAF6AA23A2FB03310AA33A
:101350005F2AC1F302115B5C40F2FF312CEA01010C
:10136000C36588BF04318165084670472CF0FF01D2
:1013700081650846704700BF00061016000610166B
:1013800070B540F26F44D0F800C0C4F20204D0F847
:1013900058E0A4451ADC9F25C4F20205AC4533DCB5
:1013A0005725C4F20205AC455ADC1025C4F20205EB
:1013B000AC4500F098802825C4F20205AC4500F049
:1013C00092804025C4F202058AE000BF45F22F4515
:1013D000C5F60205AC452DDC40F2B745C4F2020566
:1013E000AC454BDC40F27045C4F20205AC457AD006
:1013F00040F28845C4F20205AC4574D040F2A045E5
:10140000C4F202056CE000BF40F22745C4F20205B9
:10141000AC4543DCA025C4F20205AC4563D0B82539
:10142000C4F20205AC455ED040F21045C4F202059C
:1014300056E000BF45F26B45C5F60205AC453FDC02
:1014400045F23045C5F60205AC454CD045F2444561
:10145000C5F60205AC4546D045F258453EE000BF12
:101460005825C4F20205AC453DD07025C4F20205F2
:10147000AC4538D08825C4F2020531E040F2B845C9
:10148000C4F20205AC452ED045F20845C5F602056A
:10149000AC4528D045F21C4520E000BF40F228456D
:1014A000C4F20205AC451ED040F24045C4F202052C
:1014B000AC4518D040F25845C4F2020510E000BF18
:1014C00045F26C45C5F60205AC450CD045F2944595
:1014D000C5F60205AC4506D045F28045C5F60205C5
:1014E000AC4540F0D580456EC66E002E866E6E60AF
:1014F0001CBFD0E91C566E60A44515DC9F24C4F2C5
:101500000204A4452CDC5724C4F20204A44551DC97
:101510001024C4F20204A4457AD02824C4F20204A0
:10152000A44575D040246FE045F22F44C5F602046F
:10153000A44529DC40F2B744C4F20204A44545DCCA
:1015400040F27044C4F20204A44561D040F28844E1
:10155000C4F20204A4455BD040F2A04454E000BFB2
:1015600040F22744C4F20204A4453FDCA024C4F2A4
:101570000204A4454CD0B824C4F20204A44547D0C8
:1015800040F2104440E000BF45F26B44C5F602044F
:10159000A44555DC45F23044C5F60204A44561D0AB
:1015A00045F24444C5F60204A4455BD045F25844D4
:1015B00054E000BF5824C4F20204A44528D070248B
:1015C000C4F20204A44523D088241DE040F2B844AC
:1015D000C4F20204A4451BD045F20844C5F6020437
:1015E000A4453FD045F21C4438E000BF40F22844F7
:1015F000C4F20204A4450BD040F24044C4F20204F9
:10160000A44505D040F25844C4F20204A4453FD199
:101610008468C06D00F01F003F2505FA00F0CEF889
:101620000800DCF80000402C20F48020CCF80000FA
:10163000CCF8043023D0CCF80810CCF80C2070BDC6
:1016400045F26C44C5F60204A4450BD045F2804433
:10165000C5F60204A44505D045F29444C5F602043B
:10166000A44515D1C46D806804F01F0401254028ED
:1016700005FA04F4CEF80440CCF8043004D1CCF8D8
:101680000820CCF80C1070BDCCF80810CCF80C2059
:1016900070BD0000000000002DE9F04103784278A1
:1016A00062F30A23A3F58068A1F8008090F801C0D6
:1016B000A3F2CF3390F802E0632B4FEADC026EF323
:1016C0004A12A2F580644C8090F802C0077990F825
:1016D00003E0A2F2CF324FEA8E0646EA9C1667F389
:1016E0008A26A6F580678F8090F804C090F805E000
:1016F00038BF4FF00008632A4FEA5C05A1F800806C
:10170000A6F2CF3238BF00246EF3CA15632A4C808C
:10171000A5F5806C38BF0027A5F2CF32632A8F80F1
:1017200038BF4FF0000C0A7A8A724A7AA1F806C0D4
:10173000CA72427992090A724279C2F301124A725C
:10174000C2888A810289CA8142890A82027B8A749C
:10175000427BCA74C2898A82008AA0F58060C882EE
:10176000BDE8F0810000000080B54EF6FC514FF05E
:10177000000CCEF200010A6842F080720A6041F269
:10178000000144F24022CEF20001C0F20F025043A9
:1017900044F6D352C1F804C0C1F262020B68A0FB48
:1017A000022E4DF6836243F001030B6040F2C0410C
:1017B000C4F21B32C2F20041A0FB022308604FEAD0
:1017C0009E104860980CC1E9020C80BD000000002A
:1017D000704700000000000041F69C606422C2F2E5
:1017E00000400021C823026042618262C263C0F8E7
:1017F000A020012280F8A8204FF4FA72C0F8C82077
:10180000C0F8DC204BF2B9020172C0F60002C0E958
:1018100003110177C0E9081180F83010C0E90D11FB
:1018200080F84410C0E91211036580F85810C0E92F
:101830001711436680F86C10C0E91C11836780F8AB
:101840008010C0E92111C0F88C3080F89410C0E9F4
:101850002611C0E92B1180F8D010C0E9351180F8AD
:10186000E410C0E93A217047EFF3108072B600BF70
:10187000FEE700000000000044F60400C5F6020088
:10188000816841F0020181600168890409D401681E
:1018900089045CBF01685FEA814102D40168890460
:1018A000F2D570470000000043F27400C2F200401D
:1018B00002F05EBA0000000043F27400C2F2004081
:1018C00002F056BA0000000043F21410C2F20040C9
:1018D00002F04EBA0000000043F21410C2F20040C1
:1018E00002F046BA0000000043F2B410C2F2004019
:1018F00002F03EBA0000000043F2B410C2F2004011
:1019000002F036BA00000000B0B5B0F8901102291C
:10191000A1F1010E08D38A1E0EF0030C032A07D290
:101920009FED2F1A002329E09FED2D1A49E000BFFB
:101930002EF00302A0F110049FED291A002300BF2E
:1019400094ED052A94ED063A31EE021A94ED074A19
:1019500094ED085A043304F1100584ED042A31EEA5
:10196000031A84ED053A84ED064A9A4284ED075A3B
:101970002C4631EE041A31EE051AE1D1BCF1000F0C
:101980001FD05A1CBCF1010F00EB820400EB830254
:1019900094ED002A31EE021A82ED002A11D00233B2
:1019A000BCF1020F00EB830393ED002A84ED002AC3
:1019B00031EE021A05D092ED032A83ED002A31EEB2
:1019C000021A02EE101A31EE001A00EB8E00B8EE89
:1019D000422A80ED000A81EE021AB0EE410AB0BD43
:1019E000000000000000000080B50029A0F8901160
:1019F00008BF80BD8900FEF768FE80BD00000000C2
:101A000040F23070C2F2004090ED690A7047000069
:101A100040F23070C2F2004090ED680A704700005A
:101A200040F23070C2F2004090ED6A0A7047000048
:101A300010B52DED0C8B9FED52CA41F690749FEDC1
:101A4000539AB1EE080AF0EE4C0AB0EE492AC2F2FF
:101A500000449FED4C1A04F5C870DFED4B1A0BF0F3
:101A6000A3FD9FED4C8AB0EE492AF0EE480A04F53A
:101A7000F0709FED470A9FED481ADFED481ADFED41
:101A8000482AFFF78DFBB2EE04BABAEE001A04F54D
:101A9000DC709FED440ADFED440AB0EE4B2ADFED27
:101AA000431A0BF081FD9FED42AAB0EE001AB0EE92
:101AB0004A0AF0EE4C0AF0EE4C1AB0EE4C2A04F54D
:101AC000B4700BF071FD9FED3DCAB0EE0C1AF0EE54
:101AD0004C1AB0EE492A04F120009FED360ADFEDE2
:101AE000360A0BF061FD04F170009FED350ADFED61
:101AF000350A9FED351ADFED351A9FED352ADFEDFA
:101B0000352AFFF74DFB9FED34DAF6EE000AB0EE12
:101B10004D0AF0EE4C1A04F148009FED301A9FED8B
:101B2000302A0BF041FD9FED31CAB0EE4B1AF0EEBA
:101B3000491AB0EE4C2A04F1C4009FED2A0ADFEDE9
:101B40002A0A0BF031FDB0EE4D1AF0EE4A1AB0EE53
:101B50004C2AF0EE482A04F58A709FED250ADFED45
:101B6000250AFFF71DFB40F2586040F21941C2F20E
:101B70000040C4F206014160BDEC0C8B10BD00BFFB
:101B800000000000CDCCCC3E0000FA4300C0DA4596
:101B9000000096423333333F0000F04200004843D8
:101BA0009A99193FCDCC4CBF6F1283BA6666A63F97
:101BB0000000C8429A99B9400AD7A33C00007A4471
:101BC000000014428FC2F53C00002D4300002F445A
:101BD0000000FA446666E63E0000964300409C45DD
:101BE00000606A4600004842CDCCCC3D0060EA4629
:101BF00000001643CDCC4C3F41F6907040F23C5271
:101C0000C2F20040C2F200429FED592BB0F910130E
:101C100092ED0D0AB7EEC03A90ED2B4AA1F696214F
:101C200092ED045A01EE101AB1EE455A80ED555A64
:101C30009FED535A9169C0F8B810B8EEC11B80ED02
:101C40002A0A116BC0F84C1121EE021B9FED4A2BA2
:101C5000A1EE023BB7EEC33B80ED013A30EE443AD1
:101C6000B4EE453AF1EE10FA06DA9FED483A33EE5B
:101C7000443A30EE033A0CE09FED425AB4EE453A56
:101C8000F1EE10FA05DD9FED403A30EE033A33EE07
:101C9000443A90ED2C4A90ED2F5A33EE043A9FEDE2
:101CA0003C4A002180ED2C3A35EE436AB4EE446A9A
:101CB000F1EE10FAA8BF012106DA33EE456AB4EE60
:101CC000446AF1EE10FA30DB9FED2F6A9FED2F7A18
:101CD00075EE060A11F0010105FE205A73EE450A61
:101CE00075EE073AB4EE604AF1EE10FA35FE235A6B
:101CF00041B9F4EE440AF1EE10FAA8BF80ED2F5A74
:101D000002E000BF80ED2F5A75EE430A0021F4EE89
:101D1000440AF1EE10FAA8BF0121D9DA73EE450AA0
:101D2000F4EE440AF1EE10FAD2DAB7EEC33A41F615
:101D30004C51C2F2004180ED2B0AA1EE023B91F81A
:101D40004C110129B7EEC30B80ED030A0FD140F20D
:101D5000F251C2F20041497A022918BF704790ED52
:101D6000060A9FED0C1A30EE010A80ED060A704754
:101D700000000000000020BF00000000008076404E
:101D8000000087C3000087430000B4C30000B443D1
:101D900000003443000034422DE9F041044602F0D3
:101DA00043FE1CB3054694F83500022822D140F2C8
:101DB0000F462768C4F2020640F26F48B7426FF040
:101DC0000E00C4F202081DDC6F21C4F202018F4232
:101DD0002ADC3F21C4F202018F4241DC1021C4F20F
:101DE00002018F4263D028215CE000BF0120BDE8E2
:101DF000F08100BF802060650120002184F834104C
:101E0000BDE8F08147451BDC40F23F41C4F20201CE
:101E10008F422DDC40F21041C4F202018F4246D0C5
:101E200040F228413EE000BF9F21C4F202018F42F0
:101E300028DC7021C4F202018F4238D0882131E0C1
:101E400040F29F41C4F202018F4223DC40F2704114
:101E5000C4F202018F422AD040F2884122E000BF42
:101E60004021C4F202018F4221D058211AE000BF64
:101E700040F24041C4F202018F4218D040F2584172
:101E800010E000BFA021C4F202018F420FD0B821A0
:101E900008E000BF40F2B841C4F202018F4206D010
:101EA00040F2A041C4F202018F42394607D13946BF
:101EB000386820F01E0041F8140B6FF080000A68AB
:101EC000474500EA020008601ADC9F20C4F20200C5
:101ED000874233DC5720C4F2020087425ADC1020CC
:101EE000C4F20200874200F097802820C4F202006A
:101EF000874200F091804020C4F202008AE000BFD7
:101F000045F22F40C5F6020087422DDC40F2B74073
:101F1000C4F2020087424BDC40F27040C4F202007F
:101F2000874279D040F28840C4F20200874273D0E1
:101F300040F2A040C4F202006CE000BF40F2274033
:101F4000C4F20200874243DCA020C4F202008742B0
:101F500062D0B820C4F2020087425DD040F2104047
:101F6000C4F2020056E000BF45F26B40C5F6020025
:101F700087423FDC45F23040C5F6020087424BD035
:101F800045F24440C5F60200874245D045F258402C
:101F90003EE000BF5820C4F2020087423CD07020CF
:101FA000C4F20200874237D08820C4F2020031E038
:101FB00040F2B840C4F2020087422DD045F20840FA
:101FC000C5F60200874227D045F21C4020E000BF42
:101FD00040F22840C4F2020087421DD040F2404047
:101FE000C4F20200874217D040F25840C4F2020007
:101FF00010E000BF45F26C40C5F6020087420BD0EE
:1020000045F29440C5F60200874205D045F2804073
:10201000C5F60200874204D1206E016821F4807168
:102020000160386820F00100386000BF3868C007E0
:1020300010D002F0F9FC401B0628F7D32020606581
:10204000032084F835000120002184F83410BDE815
:10205000F08100BF2068B04210DC6F21C4F20201A1
:1020600088421DDC3F21C4F20201884234DC102189
:10207000C4F20201884255D028214FE040451BDCC4
:1020800040F23F41C4F2020188422DDC40F210418F
:10209000C4F20201884245D040F228413EE000BF30
:1020A0009F21C4F20201884228DC7021C4F202019F
:1020B000884237D0882131E040F29F41C4F20201CA
:1020C000884223DC40F27041C4F20201884229D0E8
:1020D00040F2884122E000BF4021C4F20201884260
:1020E00020D058211AE000BF40F24041C4F2020162
:1020F000884217D040F2584110E000BFA021C4F23E
:10210000020188420ED0B82108E000BF40F2B84179
:10211000C4F20201884205D040F2A041C4F202019B
:1021200088425BD1D4E9161202F01F023F2303FA62
:1021300002F28A6040455BDC9F21C4F202018842C2
:1021400014DC5721C4F20201884227DC1021C4F2BA
:102150000201884200F0A2802821C4F202018842D4
:1021600000F09C804021C4F2020195E040F227413A
:10217000C4F2020188421FDCA021C4F2020188429D
:1021800000F08C80B821C4F20201884200F0868001
:1021900040F21041C4F202017EE000BF5821C4F2B7
:1021A000020188427AD07021C4F20201884275D0BF
:1021B0008821C4F202016FE040F22841C4F202011A
:1021C00088426BD040F24041C4F20201884265D09F
:1021D00040F25841C4F202015EE000BFD4E9161299
:1021E00002F01F02012303FA02F24A604045A3DD18
:1021F00045F22F41C5F60201884217DC40F2B74193
:10220000C4F20201884227DC40F27041C4F20201AC
:10221000884243D040F28841C4F2020188423DD056
:1022200040F2A041C4F2020136E000BF45F26B412A
:10223000C5F6020188421FDC45F23041C5F60201B5
:1022400088422BD045F24441C5F60201884225D090
:1022500045F258411EE000BF40F2B841C4F202010D
:1022600088421BD045F20841C5F60201884215D0CC
:1022700045F21C410EE000BF45F26C41C5F602017B
:1022800088420BD045F29441C5F60201884205D040
:1022900045F28041C5F6020188420BD1616EA26E03
:1022A000E06E4A6030B1016821F480710160D4E9C8
:1022B0001C014160012084F835000020002184F8D1
:1022C0003410BDE8F081000080B5D8B190F8351029
:1022D000022919D140F20F420168C4F20202914270
:1022E00016DC6F23C4F20203994227DC3F23C4F2B9
:1022F000020399423EDC1023C4F2020399425FD0EC
:10230000282359E0012080BD80214165012080BD46
:1023100040F26F43C4F2020399421BDC40F23F4398
:10232000C4F2020399422DDC40F21043C4F20203CE
:10233000994245D040F228433EE000BF9F23C4F2BB
:102340000203994228DC7023C4F20203994237D079
:10235000882331E040F29F43C4F20203994223DC18
:1023600040F27043C4F20203994229D040F28843FC
:1023700022E000BF4023C4F20203994220D0582338
:102380001AE000BF40F24043C4F20203994217D062
:1023900040F2584310E000BFA023C4F20203994268
:1023A0000ED0B82308E000BF40F2B843C4F20203E5
:1023B000994205D040F2A043C4F20203994275D17C
:1023C00091424FF0040280F8352011DC6F20C4F2F6
:1023D0000200814222DC3F20C4F20200814239DC4B
:1023E0001020C4F20200814259D0282054E000BFDE
:1023F00040F26F40C4F2020081421BDC40F23F40D9
:10240000C4F2020081422DDC40F21040C4F202000E
:10241000814244D040F228403EE000BF9F20C4F2F9
:102420000200814228DC7020C4F20200814236D0D2
:10243000882031E040F29F40C4F20200814223DC58
:1024400040F27040C4F20200814228D040F288403D
:1024500022E000BF4020C4F2020081421FD0582079
:102460001AE000BF40F24040C4F20200814216D0A0
:1024700040F2584010E000BFA020C4F202008142A8
:102480000DD0B82008E000BF40F2B840C4F202000E
:10249000814204D040F2A040C4F2020081420868A8
:1024A00020F001000860002080BD00BF0A6822F013
:1024B0000E020A6045F25742C5F6020291420A68CE
:1024C00022F001020A600FDC45F22F42C5F602023B
:1024D000914219DC45F20842C5F60202914229D028
:1024E00045F21C4222E000BF45F27F42C5F60202DF
:1024F000914213DC45F25842C5F60202914219D0CE
:1025000045F26C4212E000BF45F23042C5F60202CD
:1025100091420FD045F2444208E000BF45F2944298
:10252000C5F60202914205D045F28042C5F602028C
:1025300091421AD1D0E9181CD0E916E30A6822F4B6
:1025400080720A6003F01F01012202FA01F1CEF845
:102550000410816ECCF80410C16E31B10A6822F407
:1025600080720A60D0E91C124A60012180F835109F
:10257000026D002180F834100AB19047002108460E
:1025800080BD0000000000002DE9F04782B000216E
:10259000019140F2A8010446C2F2004148F2B5128E
:1025A000C1F64E32A56D096840F26F490068C4F269
:1025B0000209A1FB021848452E68296816DC9F21F4
:1025C000C4F2020188422DDC5721C4F20201884284
:1025D00052DC1021C4F2020188427CD02821C4F2CE
:1025E0000201884277D0402170E000BF45F22F42BF
:1025F000C5F60202904229DC40F2B742C4F2020260
:10260000904245DC40F27041C4F20201884262D03F
:1026100040F28841C4F2020188425CD040F2A041FD
:1026200054E000BF40F22741C4F2020188423FDC7F
:10263000A021C4F2020188424DD0B821C4F20201A7
:10264000884248D040F2104140E000BF45F26B4262
:10265000C5F60202904275DC45F23042C5F6020230
:10266000904200F0828045F24442C5F60202904258
:102670007BD045F2584273E05821C4F202018842EF
:1026800029D07021C4F20201884224D088211DE0A3
:1026900040F2B842C4F2020290421CD045F2084215
:1026A000C5F60202904260D045F21C4258E000BFDD
:1026B00040F22841C4F2020188420CD040F240416D
:1026C000C4F20201884206D040F25841C4F202012D
:1026D000884240F05A83E16D082201F01F0140F268
:1026E0000F4A8A40C4F2020A324200F0E6805045A6
:1026F0004FF0040312DC6F27C4F20207B8426FDC0C
:102700003F27C4F20207B84200F3A4801027C4F2A6
:102710000207B84200F0C5802827BDE048456BDCC1
:1027200040F23F47C4F20207B84200F39B8040F2F8
:102730001047C4F20207B84200F0B38040F22847C5
:10274000AAE000BF45F26C42C5F6020290420CD0EE
:1027500045F28042C5F60202904206D045F294420C
:10276000C5F60202904240F010830268E36D03F068
:102770001F0304279F400F4218BF12F0040621D107
:1027800002279F400F4218BF12F002064CD1D940D9
:10279000090740F1FA8212F0080100F0F6820168A0
:1027A00021F00E010160012000FA03F1696060650B
:1027B00084F835000020E16C84F83400002940F0F2
:1027C000DC82E2E211046F6026D4910603D4016832
:1027D00021F004010160216C002940F0CE82D4E296
:1027E0009F27C4F20207B84246DC7027C4F20207F2
:1027F000B84256D088274FE040F29F47C4F2020704
:10280000B84241DC40F27047C4F20207B84248D0F7
:1028100040F2884740E000BFD00300F1B382A16CD2
:10282000002940F0AA82B0E211046F6000F1B0828A
:10283000910609D4016821F00A010160012084F8A1
:102840003500002084F83400E16B002940F09582C7
:102850009BE200BF4027C4F20207B84221D05827AC
:102860001AE000BF40F24047C4F20207B84218D055
:1028700040F2584710E000BFA027C4F20207B84258
:102880000FD0B82708E000BF40F2A047C4F202070B
:10289000B84206D040F2B847C4F20207B84218BFA7
:1028A000082307681F4208D0036823F0040303606D
:1028B000AA60626D42F00102626501228A403242E2
:1028C0006FD0504510DC6F23C4F2020398421DDC28
:1028D0003F23C4F20203984234DC1023C4F2020303
:1028E000984256D028234FE048451BDC40F23F4336
:1028F000C4F2020398422DDC40F21043C4F20203FA
:10290000984246D040F228433EE000BF9F23C4F2E5
:102910000203984228DC7023C4F20203984238D0A4
:10292000882331E040F29F43C4F20203984223DC43
:1029300040F27043C4F2020398422AD040F2884326
:1029400022E000BF4023C4F20203984221D0582362
:102950001AE000BF40F24043C4F20203984218D08C
:1029600040F2584310E000BFA023C4F20203984293
:102970000FD0B82308E000BF40F2A043C4F2020326
:10298000984206D040F2B843C4F20203984240F0A5
:10299000058243691B0604D5AA60626D42F00202FB
:1029A000626504228A4032426FD0504510DC6F23AA
:1029B000C4F2020398421DDC3F23C4F20203984292
:1029C00034DC1023C4F20203984256D028234FE08F
:1029D00048451BDC40F23F43C4F2020398422DDC21
:1029E00040F21043C4F20203984246D040F228431A
:1029F0003EE000BF9F23C4F20203984228DC70230C
:102A0000C4F20203984238D0882331E040F29F4359
:102A1000C4F20203984223DC40F27043C4F2020382
:102A200098422AD040F2884322E000BF4023C4F2FB
:102A30000203984221D058231AE000BF40F24043DD
:102A4000C4F20203984218D040F2584310E000BF8D
:102A5000A023C4F2020398420FD0B82308E000BFBD
:102A600040F2A043C4F20203984206D040F2B843B9
:102A7000C4F20203984240F0998103689B0704D591
:102A8000AA60626D42F004026265102202FA01F14E
:102A9000314200F0818050454FF0080210DC6F2376
:102AA000C4F2020398421DDC3F23C4F202039842A1
:102AB00034DC1023C4F20203984256D028234FE09E
:102AC00048451BDC40F23F43C4F2020398422DDC30
:102AD00040F21043C4F20203984246D040F2284329
:102AE0003EE000BF9F23C4F20203984228DC70231B
:102AF000C4F20203984238D0882331E040F29F4369
:102B0000C4F20203984223DC40F27043C4F2020391
:102B100098422AD040F2884322E000BF4023C4F20A
:102B20000203984221D058231AE000BF40F24043EC
:102B3000C4F20203984218D040F2584310E000BF9C
:102B4000A023C4F2020398420FD0B82308E000BFCC
:102B500040F2A043C4F20203984206D040F2B843C8
:102B6000C4F20203984218BF04220368134213D030
:102B7000A96001684903016808D4C90508D401683F
:102B800021F008010160216C21B905E008034FD450
:102B9000216C09B120468847E06D00F01F0120201C
:102BA00000FA01F2324200F0AB8020681023504559
:102BB00010DC6F27C4F20207B8421DDC3F27C4F2C5
:102BC0000207B84238DC1027C4F20207B8425AD0D4
:102BD000282753E048451BDC40F23F47C4F2020778
:102BE000B84231DC40F21047C4F20207B8424AD082
:102BF00040F2284742E000BF9F27C4F20207B842D4
:102C00002CDC7027C4F20207B8423CD0882735E09C
:102C100040F29F47C4F20207B84227DC40F27047F7
:102C2000C4F20207B8422ED040F2884726E000BF27
:102C3000A16C0029AED1AFE74027C4F20207B84229
:102C400021D058271AE000BF40F24047C4F20207E3
:102C5000B84218D040F2584710E000BFA027C4F295
:102C60000207B8420FD0B82708E000BF40F2A047E3
:102C7000C4F20207B84206D040F2B847C4F20207D5
:102C8000B84218BF022307681F4239D0AA6094F8DF
:102C90003520042A02681BD122F016020260426924
:102CA00022F080024261226C0AB9A26C1AB1026859
:102CB00022F0080202603F208840A860012084F8CA
:102CC0003500216D0020002984F8340055D15CE0E6
:102CD000510301680CD4C9050ED4016821F010011C
:102CE0000160012084F83500002084F8340003E0FE
:102CF000080301D4616C00E0E16B09B1204688470C
:102D0000606D002841D0606DC00734D0042084F885
:102D1000350020684FEA9821026822F00102026023
:102D2000019A013201928A421AD80268D20717D05A
:102D3000019A013201928A4212D80268D2070FD05A
:102D4000019A013201928A420AD80268D20707D05A
:102D5000019A013201928A4202D80268D207DFD179
:102D60000068C0074FF0030008BF012084F8350059
:102D7000002084F83400E16C39B1204602B0BDE88F
:102D8000F0470847216C0029F7D102B0BDE8F08771
:102D9000D0030DD4616C0029EFD1F6E7026804225C
:102DA0008A4032427FF401AE6FE600BF02686CE6F3
:102DB000E16B0029E1D1E8E72DE9F04381B0044659
:102DC00001F032FE002C00F0AF8040F26F48054663
:102DD0002068C4F20208404516DC9F21C4F20201BB
:102DE00088422DDC5721C4F20201884254DC1021B4
:102DF000C4F20201884200F07E802821C4F2020160
:102E0000884278D0402171E045F22F41C5F6020199
:102E1000884229DC40F2B741C4F20201884247DC13
:102E200040F27041C4F20201884264D040F288410D
:102E3000C4F2020188425ED040F2A04156E000BFD9
:102E400040F22741C4F20201884241DCA021C4F2D1
:102E5000020188424FD0B821C4F2020188424AD010
:102E600040F2104142E000BF45F26B41C5F602015D
:102E7000884200F3BD8045F23041C5F60201884228
:102E800000F0C98045F24441C5F60201884200F0D5
:102E9000C28045F25841B9E05821C4F2020188428B
:102EA00029D07021C4F20201884224D088211DE07B
:102EB00040F2B841C4F2020188421CD045F20841F8
:102EC000C5F60201884200F0A68045F21C419DE053
:102ED00040F22841C4F2020188420CD040F2404145
:102EE000C4F20201884206D040F25841C4F2020105
:102EF000884240F02581022184F83510002184F8B1
:102F00003410016821F00101016000BF20680168F0
:102F1000C9070DD001F088FD401B0628F6D32020FC
:102F20006065032084F83500012001B0BDE8F0831E
:102F300048F23F0204F108060168CFF61062114022
:102F4000D4F818C06CCE1143D4F824901943E36927
:102F50002943256A0E43B9F1040F43EA060343EA05
:102F6000050343EA0C0303D1D4E90B652E43334335
:102F7000666843F48011A6F13F07A6F12905042FE6
:102F8000A6F1470238BF0B46062DA6F14F0E38BFFB
:102F90000B46022A26F0030238BF0B46BEF1040F8F
:102FA00038BF0B46742A08BF0B46B9F1040F036003
:102FB000416921F0070141EA090140F0DD80D4E9CF
:102FC0000A53002B41EA050100F0D680BCF5005FF2
:102FD00000F0B880BCF1000F40F0C080022D00F07E
:102FE000C080012D00F0B480002D00F0BA80C3E055
:102FF00045F26C41C5F6020188420CD045F2804191
:10300000C5F60201884206D045F29441C5F6020198
:10301000884240F0958004F1080E022184F83510B2
:10302000002184F834100168A3699EE80450A2F1DD
:103030008005E769B5FA85F566696D09402A4FEAAA
:10304000853543EA07026FF3101142EA060208BF12
:10305000102541EADC0142EA0E02236A294341EAD3
:10306000D20141EA131140F80819C0B2CD214843FA
:103070003C2101EA9020E0652046FEF7EDF8E16D85
:10308000012201F01F0102FA01F141602068404570
:1030900000F381809F21C4F20201884214DC572191
:1030A000C4F20201884227DC1021C4F202018842E6
:1030B00000F0C7802821C4F20201884200F0C180DC
:1030C0004021C4F20201B9E040F22741C4F20201FA
:1030D000884221DCA021C4F20201884200F0B180C4
:1030E000B821C4F20201884200F0AB8040F21041E6
:1030F000C4F20201A2E000BF5821C4F202018842DA
:1031000000F09F807021C4F20201884200F0998093
:103110008821C4F2020191E040F22841C4F2020188
:10312000884200F08E8040F24041C4F202018842A1
:1031300000F0878040F25841C4F202017EE000BFF7
:103140004020EDE6032D17D8DFE805F00E0B0E0248
:10315000A3F1C072B2FA82F2520904E0032D03D344
:103160000AD1C3F300623AB140206065012084F8BF
:10317000350001B0BDE8F08341612046FEF76CF8F0
:10318000E16D3F2201F01F0102FA01F18160206828
:1031900040457FF77FAF45F22F41C5F602018842D7
:1031A00016DC40F2B741C4F20201884226DC40F24C
:1031B0007041C4F20201884243D040F28841C4F217
:1031C000020188423DD040F2A041C4F2020135E044
:1031D00045F26B41C5F6020188421FDC45F23041E1
:1031E000C5F6020188422CD045F24441C5F60201E1
:1031F000884226D045F258411EE000BF40F2B84157
:10320000C4F2020188421CD045F20841C5F6020111
:10321000884216D045F21C410EE000BF45F26C41D9
:10322000C5F6020188420CD045F29441C5F6020170
:10323000884206D045F28041C5F60201884240F03E
:10324000E18045F2574C45F6FC01C5F6020CC5F687
:10325000020160450EDC45F22F42C5F602029042A3
:1032600018DC45F20842C5F60202904228D045F229
:103270001C4221E045F27F42C5F60202904213DC77
:1032800045F25842C5F60202904219D045F26C420E
:1032900012E000BF45F23042C5F6020290420FD064
:1032A00045F2444208E000BF45F29442C5F60202EE
:1032B000904205D045F28042C5F60202904247D1C5
:1032C00000F0FC024CF6CD43083ACCF6CC43A2FB0E
:1032D0000323A1F1FC05A1F17C061B0905EB830585
:1032E00003F01F02A3682566802B4FF0010303FA49
:1032F00002F26666A26605D10020606028607260F6
:103300001EE000BF6768FBB2013F072F2B607260B1
:1033100016D85E1E082E19D2604501F1440237DC32
:1033200045F22F47C5F60207B84241DC45F208478F
:10333000C5F60207B84259D045F21C474AE000BF23
:1033400000206067C4E91B005CE000BFE06E54E051
:1033500000F0F8024AF6AB23103ACAF6AA23A2FB01
:10336000032740F20F43C4F2020308253A099842AA
:1033700003F1AA06134688BF05EB171340F60005B4
:10338000B042C4F2020505F1800628BF1346A5E746
:1033900045F27F47C5F60207B84213DC45F25847AD
:1033A000C5F60207B84221D045F26C4712E000BFD3
:1033B00045F23047C5F60207B84217D045F24447F8
:1033C00008E000BF45F28047C5F60207B8420DD0BD
:1033D00045F29447C5F60207B84207D040F6000010
:1033E000C4F2020000F1FC0100F5A07201EB8300C1
:1033F0000121E066B1402267616700210160D4E9E4
:103400001C01416000206065012184F8351001B085
:10341000BDE8F08300000000B0B500283CD00546B0
:1034200090F83400012801D10220B0BD012085F8B8
:10343000340095F83500012828D1022085F83500A0
:10344000002068652868046824F0010404602846A8
:10345000FDF796FF40F20F422868C4F2020240F2E4
:103460006F419042C4F2020118DC6F23C4F20203E0
:10347000984225DC3F23C4F2020398423CDC10232F
:10348000C4F2020398425ED0282357E04FF4006054
:103490006865002085F834000120B0BD88421BDC3F
:1034A00040F23F43C4F2020398422DDC40F2104345
:1034B000C4F20203984246D040F228433EE000BFE7
:1034C0009F23C4F20203984228DC7023C4F2020353
:1034D000984238D0882331E040F29F43C4F202037F
:1034E000984223DC40F27043C4F2020398422AD08F
:1034F00040F2884322E000BF4023C4F20203984216
:1035000021D058231AE000BF40F24043C4F2020326
:10351000984218D040F2584310E000BFA023C4F2F4
:10352000020398420FD0B82308E000BF40F2B8432E
:10353000C4F20203984206D040F2A043C4F2020350
:10354000984240F02F8103680B2464F34403036026
:103550002B6C1BB10823046823430360884219DCE9
:103560009F23C4F20203984232DC5723C4F20203C1
:10357000984259DC1023C4F20203984200F096806E
:103580002823C4F20203984200F090804023C4F242
:10359000020389E045F22F43C5F6020398422DDC71
:1035A00040F2B743C4F2020398424BDC40F270434E
:1035B000C4F20203984279D040F28843C4F2020375
:1035C000984273D040F2A043C4F202036CE000BF03
:1035D00040F22743C4F20203984243DCA023C4F222
:1035E0000203984262D0B823C4F2020398425DD02D
:1035F00040F21043C4F2020356E000BF45F26B43B1
:10360000C5F6020398423FDC45F23043C5F602039B
:1036100098424BD045F24443C5F60203984245D048
:1036200045F258433EE000BF5823C4F202039842DB
:103630003CD07023C4F20203984237D08823C4F2EE
:10364000020331E040F2B843C4F2020398422DD0A5
:1036500045F20843C5F60203984227D045F21C43C1
:1036600020E000BF40F22843C4F2020398421DD07C
:1036700040F24043C4F20203984217D040F258434C
:10368000C4F2020310E000BF45F26C43C5F602032A
:1036900098420BD045F29443C5F60203984205D0F8
:1036A00045F28043C5F60203984274D12B6E1C6824
:1036B000E40303D51C6844F480741C60EB6E1BB1FA
:1036C0001D6845F480751D60904211DC6F21C4F2C5
:1036D000020188421EDC3F21C4F20201884235DC2F
:1036E0001021C4F20201884255D0282150E000BFC9
:1036F00088421BDC40F23F41C4F2020188422DDCCB
:1037000040F21041C4F20201884244D040F2284104
:103710003EE000BF9F21C4F20201884228DC7021F4
:10372000C4F20201884236D0882131E040F29F4144
:10373000C4F20201884223DC40F27041C4F202016B
:10374000884228D040F2884122E000BF4021C4F2E4
:10375000020188421FD058211AE000BF40F24041C8
:10376000C4F20201884216D040F2584110E000BF76
:10377000A021C4F2020188420DD0B82108E000BFA8
:1037800040F2B841C4F20201884204D040F2A041A4
:10379000C4F202018842016841F001010160002089
:1037A000B0BD00BF0368052464F3430303602B6CC2
:1037B000002B3FF4D3AE0423CDE600000000000050
:1037C000B0B5044601F030F940F2A0010546C2F25E
:1037D0000041621C097818BF0C4400BF01F024F9B5
:1037E000401BA042FAD3B0BD90F89830013B012BAA
:1037F0000ED80068836D0B4212D0836D0B408B4254
:1038000016D1C36D43F00203C3658B0514D418E0D1
:1038100000F19C01012002220B681A430A607047E4
:10382000C36D43F00103C3658B0505D409E000BFF8
:103830000323C3658B0504D5D0F8E0301343C0F8EB
:10384000E0304B0504D5D0F8E4301A43C0F8E4204A
:103850004FF6FF72436DC3F6CF720A401A434265BA
:103860008A0F4AF614010020C4F200010B681A43C3
:103870000A607047000000002DE9F04390F898308E
:10388000022B19D10668D6F8C03013F07C5F1DD02A
:10389000D6F8C4309B0223D4D6F8C4300C69C3F3E5
:1038A000044CD1E90035002D8D6823D023432B43F0
:1038B00043F0804E22E000BFD0F89C1041F0080198
:1038C000C0F89C100120BDE8F08300BFD0F89C1028
:1038D00041F02001C0F89C100120BDE8F08300BF3A
:1038E000D0F89C1041F40071C0F89C100120BDE894
:1038F000F08300BF44EA834343EA050E836ED0F8A9
:103900008450D1E907970CFB03F48B6949EA0767F8
:10391000D1F81480D1F80C901F4305EB840347EADB
:10392000080745F824E047EA09475F60CF6887B198
:1039300047F29015083303320024C0F6010500BF9A
:10394000171957F8037C1F51CF680434EF5DBC4250
:10395000F6D3012101FA0CF1C6F8D010C0F894108A
:103960000020BDE8F0830000704700000000000068
:1039700090F89830012B0DD1012913D0F1B90068CE
:10398000D0F8F01021F07C5141EA0261C0F8F0104B
:1039900000207047D0F89C1041F00401C0F89C1042
:1039A000012070470068D0F8A01021F0FE4141EAE4
:1039B0000261C0F8A0100020704700BF0068D0F876
:1039C000B01021F0FE4141EA0261C0F8B0100020C1
:1039D000704700000000000080B590F89820013A80
:1039E000012A0BD80A68002ACA680FD00B69072A77
:1039F00043EA427E18D18B691BE000BFD0F89C10CF
:103A000041F00201C0F89C10012080BD072A19D1A5
:103A10000A69D1F81CC012048B6942EA0C221A43CD
:103A200042F0605218E000BFD1F808C04B6943EA89
:103A30008C73006F496800EBC10240F831E0002050
:103A4000536080BD8B68D1F810C09B0743EAC26207
:103A50004B6942EA0C421A434968C06E40F8212083
:103A6000002080BD0000000090F898C0BCF1010F5C
:103A70000ED19200006842EA0111DDF800C041EA6F
:103A8000430141EA0C01C0F880100020704700BFDC
:103A9000D0F89C1041F00401C0F89C100120704740
:103AA000704700000000000010B58CB043F27402B3
:103AB00001F00071C2F2004290420BD151B143F2C9
:103AC000740401A9C2F20044204600F031F80698BF
:103AD00018BB29E043F21412C2F2004290420BD10B
:103AE00051B143F2141401A9C2F20044204600F07F
:103AF0001FF8069888B917E043F2B412C2F20042E8
:103B0000904211D181B143F2B41401A9C2F2004430
:103B1000204600F00DF8069830B12068816921F048
:103B2000010181610CB010BD0CB010BD000000009F
:103B30000068426C02F007000860C2F3022048608F
:103B4000C2F3803302F018008860C2F34010C860EE
:103B5000C2F380100861C2F3C0104861C2F3C020F4
:103B60008861C2F30030C861C2F34030C1E9080384
:103B7000C2F3064200208A62704700000000000085
:103B80002DE9F04390F89870022F11D1402919D1F6
:103B90000668D6F8A07017F4FE0F2FD0D6F8A470E0
:103BA0007F0635D0D6F8A470FF013BD400273CE057
:103BB000D0F89C1041F00801C0F89C100120BDE82D
:103BC000F08300BF41290FD10668D6F8B07017F412
:103BD000FE0F13D0D6F8B4707F0619D0D6F8B470A3
:103BE000FF012BD400272CE0076D8F4206D900F18E
:103BF0007C04456D4FF0000C0E462BE0D0F89C1075
:103C000041F02001C0F89C100120BDE8F08300BF06
:103C1000D0F89C1041F48071C0F89C100120BDE8E0
:103C2000F08300BFD6F8A070FF0FD6F8A46000F1B3
:103C30007404C6F30526F519466C0AE0D6F8B07090
:103C4000FF0FD6F8B46000F17804C6F30526F51925
:103C5000C66CAC467543246804EB850E54F8257099
:103C600017F08047576054F8257027F0604608BF6A
:103C7000C7F38A46166054F8257007F0005797601E
:103C800054F8254004F000441461BEF80440D461A7
:103C9000BEF8064014F00F04D460DEF8044004F4CB
:103CA00080145461DEF8044004F4001494619EF81A
:103CB000074004F07F041462DEF804404FEAD47435
:103CC000546228D047F290180024C0F601080EEB89
:103CD0000406651C377A1F55D76818F80770BD426F
:103CE00019D21F19757A7D70D56818F80590A51C32
:103CF0004D453FBFB57ABD70D56818F805903CBFFB
:103D0000E51C4D4507D2F57A0434FD70D56818F8E6
:103D10000550AC42DBD3402906D10068C0F8A8C0EA
:103D20000020BDE8F08300BF412905D10068C0F83C
:103D3000B8C00020BDE8F0831F2909D8006801221F
:103D400002FA01F1C0F898100020BDE8F08300BF2E
:103D5000006801F01F01012202FA01F1C0F89C1075
:103D60000020BDE8F0830000704700000000000064
:103D70002DE9F04F89B004464AF61000C4F2000065
:103D800001684AF61400C4F200000268206802EAE2
:103D90000108056DD0F85490036D0293436D0193B3
:103DA000036D0493436D0393036D0893436D079371
:103DB000036D0693436D0593D0F854A0D0F850B02E
:103DC0005FEACA530ED51BF480710BD04FF480719B
:103DD00001654AF610010020C4F200010860204687
:103DE000FFF7C2FF05EA09064AF610095FEA4A50E2
:103DF000C4F200094FEA887711D51BF480600ED019
:103E00002068D0F8DC10D0F8E42011404FF4806234
:103E100002650020C9F80000204600F015FDDDE92C
:103E2000011000EA010506F4704657B12068002130
:103E3000016508F00300C9F8000020463946FFF785
:103E400093FDDDE9031000EA010705F00F0546B117
:103E50002068314606650020C9F80000204600F0C1
:103E6000FBFC07F0F00645B12068294605650020F7
:103E7000C9F80000204600F0EFFB46B1206831464B
:103E800006650020C9F80000204600F0A5FC5FEAA6
:103E90000A500CD51BF4006009D020684FF4006173
:103EA00001650020C9F80000204600F0D9FC5FEA57
:103EB0008A5011D51BF400700ED02068D0F8D810AD
:103EC000D0F8E02011404FF4007202650020C9F8DC
:103ED0000000204600F0BCFC5FEA0A300CD51BF461
:103EE000002009D020684FF4002101650020C9F8A6
:103EF0000000204600F0ACFB5FEACA300CD51BF492
:103F0000803009D020684FF4803101650020C9F865
:103F10000000204600F094FC5FEA4A30DDE905101D
:103F200000EA01050CD51BF4802009D020684FF46D
:103F3000802101650020C9F80000204600F07CFCCB
:103F40005FEA8A30DDE9071000EA010005F06071E0
:103F50000FD51BF400320CD022684FF400331365E8
:103F60000022C9F80020D4F89C2042F08002C4F856
:103F70009C2000F0715539B1206801650020C9F816
:103F800000002046FFF790FD206845B1056500213F
:103F9000C9F80010D4F89C102943C4F89C10A9F566
:103FA000016188420AD0D4F89C00002868D02046DD
:103FB00009B0BDE8F04FFFF773BD00BF60688168CE
:103FC0008907F0D0016A426A036A476A114003EA2E
:103FD000070202F03005D0F82080D0F82490D0F805
:103FE00020B0D0F824A0026A089211F00F01426AB2
:103FF0000792466A026A069203D00162204600F0E8
:104000000FFC08EA09072DB16068294605622046C1
:1040100000F00EFC70060BEA0A0607F4C0750ED518
:10402000069810F040000AD060684023C16BC26B54
:10403000090C02F03F020362204600F0F5FBDDE9C7
:10404000071000EA010706F4FC462DB16068294616
:104050000562204600F0E0FB07F4F02036B161680D
:104060000E62D4F89C103143C4F89C1000289AD0FA
:1040700061680862D4F89C100843C4F89C0092E779
:1040800009B0BDE8F08F00002DE9F04F85B0A8B36E
:104090004AF200080446C4F200080068404531D0E6
:1040A00094F89810A9B3816921F01001816100F0A2
:1040B000BBFC054620688169090705D500F0B4FC02
:1040C000401B0B28F6D310E0816941F001018161AA
:1040D00000F0AAFC054600BF20688169C90721D10C
:1040E00000F0A2FC401B0B28F6D30120D4F89C1052
:1040F0000843C4F89C00032084F89800012005B010
:10410000BDE8F08F08F58071616094F8981000297F
:10411000C9D1002084F89900204600F0B5F9206844
:10412000C1E700BF816941F002018161217C8269A0
:1041300022F04002012918BF40328261617C82690D
:1041400022F48042012908BF02F580428261A17CED
:10415000826922F48052012918BF02F580528261DF
:10416000816921F44073D4E902120B4383618369AE
:1041700023F0A4038361036923F0100303619AB160
:10418000012A0DD0022A09D08369032A43F0800353
:104190008361036943F01002026105D1202200E02F
:1041A000042283691A438261D4E90572E369561EC9
:1041B0006FF0FF02256A02EB0323B1F5407F43EA6B
:1041C0004663A5F1010646EA030640F20003CFF676
:1041D000FF7303EB074746EA0701C16110D1D4E939
:1041E0000B65D4E90917013F02EB06226FF00F06B9
:1041F0003A4306EB05173A4303EB01411143C16013
:10420000236E2BB1616ED0F8C0201143C0F8C010EE
:10421000E16DCDE90313D94246F64071C0F60101C4
:1042200009D0D0F8C820A36E22F0070251F823303D
:104230001A43C0F8C820D4F840A0BAF1000F09D042
:10424000D0F8BC20636C22F0070251F823301A43E7
:10425000C0F8BC20A76C57B1D0F8BC20E36C22F0AA
:10426000700251F8233042EA0312C0F8BC20D4F89F
:1042700050C0BCF1000F0AD0D0F8BC20636D22F40E
:10428000E06251F8231042EA0121C0F8BC10404519
:1042900004D161688A6822F003028A600021C4F8B0
:1042A0009410C4F89C10012184F898104FF6FC7209
:1042B000D0F88410D4F83C9021EA0203656CD4E96C
:1042C0000D120292019543EA8103C0F88430D0F8C0
:1042D000843023F47F0343EA0243C0F88430531848
:1042E000D0F888606FF38F0646EA8306C0F88860CE
:1042F000D0F8886003EB490326F4FE0646EA094637
:10430000C0F88860D0F8A0606FF38F0646EA830695
:10431000C0F8A060D0F8A06005FB0A3326F4FE06C2
:1043200046EA0A46C0F8A060D0F8B0606FF38F0686
:1043300046EA8306C0F8B060D0F8B06026F4FE0606
:1043400046EA0746C0F8B060E66CD0F8AC506FF3B0
:104350008F0506FB07337E4345EA8305C0F8AC5062
:10436000D4F8548008FB0C35D0F8F0306FF38F038D
:1043700008FB0CFC43EA8503C0F8F030D0F8F0E00D
:10438000A36D2EF47C1242EA0342C0F8F02005EB44
:104390004302D0F8C0506FF38F0545EA8202C0F89F
:1043A000C020D0F8C020DDF80CB022F47C1242EA24
:1043B0000B42C0F8C020019AD0F8C05025F07C55BF
:1043C00002FB0AFE4AF20002C4F20002DDF810A06D
:1043D00002EB8101029A01F5406145EA0A6501EBB1
:1043E0008207C0F8C05007EBC902A56E02EB8E0031
:1043F000626700EB86060BFB05F2276706EB8C076E
:10440000C4E91E060AFB05F007EBC30303EB8202B7
:10441000C4F884304DF2FC33E16602EB8000C4F254
:1044200000039842C4F88070C4F88820C4F8900053
:1044300002D920205AE600BF814221D20A4600203C
:1044400042F8040BD4F890309A4215D2486001F13A
:104450000802D4F890309A423FBF0020886001F1F2
:104460000C02D4F8903038BF9A4205D2C86010319F
:10447000D4F890209142E1D305B0BDE8F08F00BFA1
:10448000002005B0BDE8F08FB0B5B6B0044602A874
:10449000B8210025CDE93455CDE932553195FCF7E9
:1044A00014F94DF200412068C4F20001884241D065
:1044B0004AF20041C4F20001884273D04AF200017E
:1044C000C4F20001884240F0BF80002003904FF406
:1044D000004002904FF080501D9002A801F058FE5D
:1044E00008B1FDF7C1F940F29C6144F2E040C2F22C
:1044F0000041C5F602000A68002A02F101020A60C2
:1045000008D1C16841F48071C160C16801F4807153
:10451000019101990168152441F0080101600068CA
:10452000132500F008000190019803203190092123
:1045300033E000BF4FF4004002904FF080501D90D8
:1045400002A8039501F024FE08B1FDF78DF940F2B1
:104550009C6144F2E040C2F20041C5F602000A68E4
:10456000002A02F101020A6008D1C16841F4807199
:10457000C160C16801F48071019101990168A024B2
:1045800041F00801016000689F2500F008000190DB
:10459000052101984FF44050319040F60040C5F697
:1045A000020038E0002003904FF4004002904FF0EA
:1045B00080501D9002A801F0EBFD08B1FDF754F901
:1045C00040F29C6144F2E040C2F20041C5F60200B4
:1045D0000A68002A02F101020A6008D1C16841F4A8
:1045E0008071C160C16801F4807101910199016815
:1045F000162441F0020101600068142500F0020059
:10460000019001986020319040F60040C5F602000C
:104610000921A0F50060359131A9022232920022D1
:10462000CDE9332200F020F905210022284600F0D0
:1046300013FB284600F0FCFA05210022204600F07A
:104640000BFB204600F0F4FA36B0B0BD00000000CD
:10465000704700000000000010B58EB043F27401F6
:10466000C2F2004188420DD043F21411C2F200415F
:10467000884219D043F2B411C2F2004188422BD0D3
:104680000EB010BD43F2740004AAC2F2004002ABA7
:104690004021FFF775FAB8B341F63C50C2F2004032
:1046A00041890131418175E043F2141004AAC2F23C
:1046B000004002AB4021FFF763FA002840D041F6EA
:1046C0003C50C2F2004081890131818143F21414CF
:1046D000C2F2004462E000BF43F2B41404AAC2F282
:1046E000004402AB40212046FFF74AFA002855D08B
:1046F00041F63C5043F2B414C2F20040C2F200440E
:10470000C1890131C18149E00498A0F20121022947
:1047100028D20138BDF80A20C1B2BDF80C304901D9
:104720009DF90E4051FA80F043F6D031C2F20041BB
:10473000009401EBC000BDF8081000F5887024E07B
:10474000049840F20521884230D01128BED141F6AC
:10475000907002A9C2F2004000F583600FF054FD92
:10476000B4E700BF40F20321884213D143F6D034AE
:10477000BDF80810BDF80A20BDF80C309DF90E00F8
:10478000C2F20044009004F10800C9BAD2BADBBA00
:10479000FCF712FD43F27404C2F20044012100222E
:1047A0002046FFF721F80EB010BD00BFBDF808107D
:1047B000BDF80C30BDF80A2041F690749DF90E004A
:1047C000C2F20044C9BA0090D2BA04F54470DBBA10
:1047D000FCF7F2FC7AE700007047000000000000E0
:1047E00090F8981001290DD1022180F898100168E5
:1047F0008A6922F001028A610021C0F89C100846F3
:10480000704700BFD0F89C1041F00401C0F89C1024
:104810000120704700000000704700000000000009
:10482000704700000000000070470000000000001A
:10483000704700000000000070470000000000000A
:1048400070470000000000007047000000000000FA
:1048500070470000000000007047000000000000EA
:1048600070470000000000002DE9F04F82B00D6895
:10487000002D00F0CB8000F1264242F2004302F10D
:10488000FF72C5F602030A2698424FEAB22444F2A8
:10489000F44E08BF0926082C40F2040C38BF4FEA3A
:1048A000B226C5F6020EC5F6000C009600220027BF
:1048B000002609E001360D6835FA06F307F1040712
:1048C00002F1020200F0A280012303FA06F415EAC5
:1048D0000408EFD0D1F804A003230AF0030B93409F
:1048E000ABF101056FEA0309012D0FD88368CD688C
:1048F00003EA090395402B438360CAF3001543681C
:10490000A34305FA06F42343436005E0BBF1030F1C
:1049100002D14FF0030B21E0C3688C6803EA09035E
:104920009440BBF1020F43EA0403C36016D16FF059
:10493000030307F01C0503EA56030F24034404FA9B
:1049400005FBD3F820A00C692AEA0B0AAC4044EA24
:104950000A041C62D1F804A00AF0030B03680BFAE6
:1049600002F403EA09031AF4403F43EA0403036034
:10497000A0D0DEF8003040F2084A43F00203CEF83F
:104980000030DEF80030C5F6000A03F002030193A0
:1049900026F00303019C07F00C040F2553F80A903E
:1049A000A54029EA0509009D05FA04F444EA090432
:1049B00043F80A404FF0B04ADAF800904C6849EAF0
:1049C0000805E30258BF29EA0805A302CAF8005007
:1049D000DCF8009049EA080558BF29EA0805A30356
:1049E000CCF80050DCF8809049EA080558BF29EA65
:1049F0000805E403CCF88050DCF87C3043EA080575
:104A000058BF23EA0805CCF87C5053E702B0BDE854
:104A1000F08F000000000000002A08BF0904816137
:104A200070470000000000004CF6C040C2F2014098
:104A3000006870470000000040F2A0004CF6C04142
:104A4000C2F20040C2F2014100780A6810440860D6
:104A5000704700000000000080B5032000F02CF932
:104A600002F0D2FA44F2184147F2B003C5F602014F
:104A7000C0F601030A68096801F00F01C2F30322BE
:104A8000595C9A5C01F01F0102F01F02D04040F215
:104A9000AC02C2F2004220FA01F1116040F2A8011A
:104AA000C2F2004108600F2000F00AF800281CBF85
:104AB000012080BD00F0A4F8002080BD00000000AF
:104AC000B0B58AB00F2840D804461C2000222146E9
:104AD000002500F0C1F81C2000F0AAF840F2A40064
:104AE000C2F20040046044F2E840C5F602000168EA
:104AF00041F001010160006801A900F0010002908D
:104B0000029802A802F0CCF9079C002C18BF0124DF
:104B100002F01AFA4DF68361A040C4F21B314FF047
:104B2000FF32A0FB010143F60C00C2F200404FF03F
:104B30008043036002EB9141C0E9011540F2E73187
:104B4000C0E9031503F008FB10B101200AB0B0BDA5
:104B500043F60C00C2F2004003F06EFB0AB0B0BD99
:104B600010B54EF6A05E4178CEF2000E90F800C06F
:104B70004EF8081CDEF8001021F00101CEF80010FC
:104B800041684EF8041C017BC37A827A447B1B0681
:104B900043EA0171837B41EAC241C27B41EA84411D
:104BA000447A41EA4341007A41EA024141EA042160
:104BB00041EA400040EA0C00CEF8000010BD0000C1
:104BC0004EF62450CEF20000BFF35F8F016821F44F
:104BD0008031016000210167704700000000000083
:104BE0004EF6245140F00100CEF20001086708683B
:104BF00040F480300860BFF34F8FBFF36F8F704772
:104C000081B044F2F4400022C5F60200016841F090
:104C10000201016000680F2100F0020000906FF0B7
:104C20000100009B01B000F017B800000000000078
:104C3000002848BF704781B200F01F0001224909D7
:104C400002FA00F04EF20012CEF2000242F8210009
:104C5000704700000000000070B54EF60C5C4FF08D
:104C6000FF36CEF2000C00F1604505F56445DCF836
:104C70000030C3F3022E8EF00703042B28BF042359
:104C8000BEF1030406FA03F321EA030100F00F0367
:104C900038BF0024043B0028634406FA04F048BFF0
:104CA00003F10C05A14022EA00000843000128702E
:104CB00070BD0000000000004EF60C514FF6FF03DF
:104CC000CEF200010A681A4060F30A2242F08060C6
:104CD00040F0FD70086070470EF00AFC0000000014
:104CE00001680122C0F8D824002280F8CC24886909
:104CF00040F000608861486D40F08052002042F032
:104D000003024A6570470000704700000000000081
:104D100002680020516270472DE9F04F81B0D0F851
:104D20000080D8F8240099B1D8F82830B1F1010EEC
:104D300000EB134375D0AEF101000EF00307C0B2D3
:104D400003280DD201214FF0000A002F50D168E056
:104D500040EA0240C8F82800002001B0BDE8F08F0A
:104D600008F1F4050021009741F0010408F5827C68
:104D700055F8100FE4B241F00207FFB203EB104BFD
:104D80005CF8244041F00303D8B25CF827600B1DA7
:104D90000EF0FC095FFA83FA0BEB1444CA4504EBEE
:104DA00016445CF820001ED0194643F00103DBB224
:104DB00004EB104A41F0020455F8106FE4B241F0E0
:104DC0000307FFB25CF823000B1D0AEB16465FFADF
:104DD00083FA5CF8244006EB1046CA455CF82700CD
:104DE00006EB1444E0D104EB10430531009FC7B13A
:104DF00008EB8A00012FD0F8040103EB104310D018
:104E0000C8B2022F08EB8000D0F8040103EB104376
:104E100007D0481CC0B208EB8000D0F8040103EBB7
:104E2000104308EB8E0043EA0241C0F80411002051
:104E300001B0BDE8F08F0000D0F8E0040CF0F4B948
:104E400001EBC10200EB8202D0F8E004126A0CF020
:104E50004FB900000000000001EBC10200EB82022C
:104E6000D0F8E004D2F860220CF0A2B900000000F3
:104E7000D0F8E0040CF0DCB910B54AB2044601F0F9
:104E80000F00B2F1FF3F00EBC00104EB81020BDD2C
:104E900002F51571002382F8553294F894240870B5
:104EA000012A0AD1022010BD02F114010123537519
:104EB00094F894240870012AF4D0012084F8940412
:104EC00020680CF0D9FF002084F8940410BD000085
:104ED000B0B50279044601F00F00904202D90120DA
:104EE000B0BD00BF49B2B1F1FF3F09DD00EBC00129
:104EF000002304EB810202F5157182F8553207E0B8
:104F000000EBC001012304EB810202F1140153758F
:104F100094F8942400258D70012A087002D1022093
:104F2000B0BD00BF012084F8940420680DF09CFA05
:104F3000284684F89454B0BD01F00F0101EBC10183
:104F400000EB8100D0F8680270470000000000000C
:104F500070B54CB2064601F00F00B4F1FF3F00EB14
:104F6000C00107DD06EB8104002504F5157184F806
:104F7000555206E006EB810C01240CF114018CF86B
:104F800015404D7808706FF3DF228A60002D0B7199
:104F900018BF4883022B01D10020487196F8940471
:104FA000012801D1022070BD012086F894043068E8
:104FB0000CF0F2FD002086F8940470BD00000000A3
:104FC00080B501F00F0E0EEBCE0100EB810C00213D
:104FD000CCE998238379CCF868128CF855120CF53B
:104FE0001571012B8CF854E208BFCCF870220068D0
:104FF0001A460DF085FA002080BD00000000000078
:10500000B0B50446007901F00F05854202D90120B0
:10501000B0BD00BF48B2B0F1FF3F09DD01EBC100F8
:10502000002204EB800000F5157180F8552207E09E
:1050300005EBC500012204EB800000F1140142756C
:1050400094F8942401208870012A0D7002D1022066
:10505000B0BD00BF84F8940420680DF031FA1DB192
:10506000002084F89404B0BDA179206804F29C4229
:105070000DF0CAF9002084F89404B0BD00000000CF
:1050800010B501F00F0C01240CEBCC0100EB810EEC
:10509000714601F814CF4FF0000CC1F814C090F81D
:1050A00006C04C70CA60BCF1010F0B6108BFCEF89E
:1050B0003020006862460DF023FA002010BD000089
:1050C0002DE9F04F89B00568824628460DF030FC86
:1050D00010B109B0BDE8F08FDAF800000DF058FC0F
:1050E0000028F6D0D5F80808C0F30D20CAF8D4047B
:1050F000DAF800000DF04CFC8007DAF8000003D568
:10510000416901F00201416105F5006104910DF072
:105110003FFCC006DAF8000005953BD5816921F017
:10512000100181612C6A04F00F05C4F34340062886
:1051300018D0022827D147F6F07014EA000622D0D2
:1051400005EBC50034090AEB800705982246D7F81D
:1051500060120DF021FCD7F8600200EB1610C7F8C2
:10516000600207E00AF29C41082205980DF014FC49
:10517000C4F30A1405EBC5000AEB8000D0F86812EE
:105180002144C0F86812DAF80000816941F010018A
:105190008161059D0DF0FCFB0003CDF820A040F1DE
:1051A0000381DAF800000DF0CFFB002800F0FC804E
:1051B00006460AF51D784FF430644FF0000B0AF2F2
:1051C0009C40079009E000BF0BF1010B760804F149
:1051D000200408F1240800F0E780F007F4D05FFA1B
:1051E0008BF9DAF8000049460DF0CAFB8246C00789
:1051F0006DD0281901218160089F38682118036C3F
:105200008A68BF79012F29D117073BD497065BD451
:1052100012F0280F059D5AD143F20B07C4F65477BC
:10522000BB4202D312F400424AD1D8F800200969E7
:105230006FF3DF41BBF1000FA2EB0101059D48F8C0
:105240000C1C19D1089BD3F86422002A00F0A68018
:10525000D3F860020844C3F860020DE043F20B0784
:10526000C4F65477FF37BB421AD1100428D49006F5
:10527000059D01D52020886008984946FFF7ECFD80
:1052800025E000BF43F20B00059DC4F65470834235
:105290001DD312F400401AD04FF40040886016E08D
:1052A000BBF1000F07D10899D1F8641219B9002198
:1052B000079A0DF0A9F808984946FFF7CDFD05E0DB
:1052C0004FF4004001E000BF20208860059D5FEAA8
:1052D0000A7025D528190821816043F20B0108982E
:1052E000C4F654714F1E0068056C2044BD428168AD
:1052F00005D911F400411CBF4FF4004181600898AA
:1053000000F08AFDBD42059D0AD9089880790128E0
:1053100006D108980121079A00680DF075F800BFC2
:105320005FEACA600CD45FEA8A700FD45FEA8A60D1
:1053300025D45FEA8A40DDF820A07FF545AF27E05D
:105340002819102181605FEA8A70EFD5686900062C
:1053500004D50499486840F48060486018F81D0C32
:10536000012806D1002008F81D0C0898494600F0D5
:105370009BFB2819022181605FEA8A60D9D5281930
:10538000202181605FEA8A40DDF820A07FF51CAF14
:1053900028194FF40051816016E700BF0121079AD8
:1053A0000DF032F868E700BFDAF80000AB460DF008
:1053B000EFFA400340F1E080DAF800000DF0BCFAAB
:1053C000002800F0D980064600270BF510600390F6
:1053D0000AF29C40029004E0760807F1010700F011
:1053E000CB80F007F8D0F9B2DAF8000007910DF0A1
:1053F000B3FA0446C007039D0AD1200734D4E0065F
:1054000038D460063CD4A00740D42006E4D556E04A
:10541000049B07F00F004FF0010C05EB47120CFA4C
:1054200000F0596B21EA00005863C2F808C09AF8EE
:105430000600012812D107EBC7000AEB8000D0E973
:105440000712114401624FB9DAF8240030B9DAF8D2
:1054500000000121029A0CF0D7FF00BF50460799C7
:10546000FFF7EEFC2007CAD505EB47100821816045
:10547000E006C6D505EB4710102181606006C2D555
:1054800005EB471040218160A007BED5584639463C
:105490000DF0DEF907EBC7000AEB800010F8171FCC
:1054A000012905D1002101705046079900F0F8FA52
:1054B00005EB47100221816020067FF58DAF07EBD9
:1054C000C7000AEB8002914659F8241FC84658F8D5
:1054D000040F8142FFF480AF9346DAF800400B1AC4
:1054E0005BF81C5FAB4238BF1D4604EB47130694C4
:1054F00005F1030CD3F81859ADB2B5EB9C0F29D3C5
:1055000003F5106A02F12005D9F8001081421FD975
:10551000081A0899DBF80040A0428A7938BF04468F
:1055200029680092A3B2DDE906020DF0E5FC2868C7
:10553000E11C20442860D8F800002044C8F800008E
:10554000DAF8182092B2B2EB910FDDD2D9F8001040
:10555000DDF820A0DDF814B081423FF63DAF069A99
:1055600007F00F00012101FA00F0D2F8341821EA07
:105570000000C2F834082FE7DAF800000DF008FA4E
:1055800000281DD4DAF800000DF002FA000536D428
:10559000DAF800000DF0FCF9000141D4DAF800005F
:1055A0000DF0F6F9C0044DD4DAF80000DDF81080F3
:1055B0000DF0EEF98004DAF8000000F1688181E175
:1055C0000499486820F0010048609AF8CC0401284A
:1055D00008D100208AF8CC0400215046FFF794FB44
:1055E00003E000BF504600F0FBFBDAF80000416921
:1055F00001F0004141610DF0CBF90005C8D50498D8
:105600008068C00702D0504600F02EFCDAF8000097
:10561000416901F4006141610DF0BAF90001BDD5A5
:10562000DAF80000416901F0006141619AF8CC1498
:1056300011B3504600F018FCDAF800000DF0A8F99C
:10564000C004B1D50499486820F001004860DAF838
:10565000000010210DF0FCF89AF80400010600F09B
:10566000DB804FF0FF3100F0030C51FA80F1032989
:1056700016D2002182E000BF01218AF8CC14406DCF
:105680000121C0F38300CAF8D0045046FFF73CFB69
:10569000DAF800000DF07CF9C0047FF585AFD1E7A2
:1056A000C0B24FF6A05800F0FC0E4FF6C0554FF6B2
:1056B000E0544FF600600BF5366300214FF67F375C
:1056C000CFF6FF78CFF6FF75CFF6FF74CFF6FF70F9
:1056D000A3F51872A3F51076043197608E4553F840
:1056E000082022F4001243F8082043F8587C53F8AD
:1056F000602C22F4001243F8602C53F8602C42F026
:10570000006243F8602CB760A3F508765A5922F47A
:1057100000125A5143F8387C53F8402C22F40012FE
:1057200043F8402C53F8402C42F0006243F8402CE0
:10573000B760A3F500761A5922F400121A5143F803
:10574000187C53F8202C22F4001243F8202C53F834
:10575000202C42F0006243F8202CB7601A5822F443
:1057600000121A509F601A6822F400121A601A6818
:1057700042F000621A6003F18003A9D1BCF1000F6E
:10578000059849D000F5106200F5306002EB411732
:105790004FF67F334E01BCF1010FBB6000EB4115AA
:1057A000975927F400179751AB60875927F40017D2
:1057B0008751875947F0006787512DD04F1CBCF1A6
:1057C000020F4FEA471502EB471600EB4717B3608D
:1057D000565926F400165651BB60435923F4001362
:1057E0004351435943F00063435115D002314FF602
:1057F0007F364F0102EB411300EB41119E60D359FC
:1058000023F40013D3518E60C15921F40011C1510A
:10581000C15941F00061C151DDF81080D8F81C0079
:1058200040F00110C8F81C009AF80F0040B1D8F8F9
:10583000840040F00B00C8F8840008F1440008E040
:10584000D8F8140042F22B010843C8F8140008F1FC
:10585000100001680AF29C4241F00B010160D8F887
:10586000000020F4FE60C8F800009AF80610DAF88C
:1058700000000CF0C9FDDAF80000416901F4805124
:1058800041610DF085F88004DAF800001AD50CF0BB
:10589000CBF9DAF800000DF03BF88AF80700DAF8E7
:1058A000004001F029FB9AF80720014620460DF040
:1058B00093FA504600F07CFADAF80000416901F4EE
:1058C000005141610DF064F8000707D4DAF80000D8
:1058D0000DF05EF800060ED436E000BF504600F032
:1058E00083FADAF80000416901F0080141610DF026
:1058F0004FF8000628D50599886920F08000886156
:105900009AF8040002281FD3012440F27B2503E00B
:1059100001342435844217D21AF805100129F7D131
:1059200004F00F00220600EBC0000AEB800000F13B
:10593000140158BF00F51571DAF800000CF0F8FEFC
:105940009AF80400E4E700BFDAF800000DF020F850
:10595000C0024FD4DAF800000DF01AF88002059D5D
:1059600040F17E809AF80410022929D305F53260AF
:1059700001390AF51F72012306E000BF013900F169
:10598000200002F124021BD007681678012EF5D101
:10599000B7F1FF3FF2DCDAF8D46486EA1747FF0775
:1059A000ECD102F8013CAF6947F08007AF616F6945
:1059B0003F06E3D4D8F8040040F40070C8F80400AF
:1059C000DAF80000416901F4001141610CF0E0FFD8
:1059D00040004BD55046FFF72FFADAF80000416936
:1059E00001F0804141610CF0D3FF400745D4FFF73F
:1059F00070BB00BF9AF80400022825D305990AF16C
:105A00003C0501F512640126012705E00137203429
:105A1000874205F1240517D221682A78012AF5D199
:105A2000B1F1FF3FF2DC07F00F0005F8016C00EB6D
:105A3000C0000AEB800000F11401DAF800000CF05D
:105A400077FE9AF80400E1E7DAF80000416901F412
:105A5000801141610CF09CFF8002059D3FF582AFF3
:105A6000DAF800000CF094FF4000B3D4DAF800003C
:105A70000CF08EFF40077FF52CABDAF8000044688D
:105A8000610704D55046FFF7F3F9DAF800004168E2
:105A90002143416009B0BDE8F08F00000000000024
:105AA000D0F8E0040BF024BCD0F8E0040BF034BCD8
:105AB000F0B581B0002800F02881044690F89504E4
:105AC00028B9002084F89404204600F035F903201A
:105AD00084F8950420680CF08FFCD4E90001267C42
