:020000040800F2
:1000000010E10124E1030008C1C00008E19D0008DF
:1000100041C00008110F0008A923010800000000DA
:1000200000000000000000000000000001D40008F3
:10003000E117000800000000B1CE0008B1D40008AC
:10004000FF030008FF030008FF030008FF03000888
:10005000FF030008FF030008FF030008FF03000878
:10006000FF030008FF030008FF030008E911000870
:10007000F9110008091200081912000829120008D5
:10008000FF030008FF030008FF030008B918000879
:10009000D9180008C9180008E9180008FF0300086B
:1000A000FF030008FF030008FF030008FF03000828
:1000B00089D60008FF030008FF030008FF030008BB
:1000C000FF030008FF030008FF030008FF03000808
:1000D00009D3000881F9000891F90008FF0300081E
:1000E000FF030008FF0300080000000099D6000885
:1000F000FF030008FF030008FF030008391200088F
:10010000FF030008FF030008FF030008FF030008C7
:10011000FF03000869E90008FF030008FF03000867
:1001200049120008FF030008FF03000859120008E5
:1001300069120008FF030008FF030008FF0300081E
:1001400000000000000000000000000000000000AF
:10015000FF030008FF030008FF030008FF03000877
:10016000FF030008FF030008FF030008FF03000867
:10017000FF030008C9CC0008FF03000800000000CE
:10018000FF030008FF030008FF030008FF03000847
:10019000FF030008FF030008FF030008FF03000837
:1001A000FF030008FF030008FF0300080000000031
:1001B000FF030008FF030008FF030008FF03000817
:1001C000FF030008FF03000800000000000000001B
:1001D0000000000000000000FF0300080000000015
:1001E000000000000000000000000000000000000F
:1001F0000000000000000000FF030008FF030008EB
:10020000FF030008FF03000800000000FF030008D0
:10021000FF030008FF030008FF030008FF030008B6
:10022000FF03000800000000FF03000800000000BA
:10023000FF030008FF03000800000000FF030008A0
:10024000FF030008FF030008FF030008FF03000886
:10025000FF030008FF030008FF030008FF03000876
:10026000FF030008FF030008FF030008FF03000866
:10027000FF030008FF030008FF0300080000000060
:10028000FF030008FF030008FF030008FF03000846
:1002900000000000FF030008FF030008000000004A
:1002A00000000000FF030008FF030008FF03000830
:1002B000FF030008FF030008FF030008F918000807
:1002C00009190008FF030008FF03000800F002F806
:1002D00000F076F814A696E8000CB244B344DA4570
:1002E00001D100F06DF8BAE80F000FA696E83000D3
:1002F000A5EB040504EB0607AAEB0704A7F1010729
:100300004FEA15154FEA3414A4F10104AC4201D3AD
:1003100000F056F813F0010F18BFFB1A43F0010369
:1003200000F001F8DBE718470866010028660100C5
:100330000A444FF0000C10F8013B13F0070408BF0B
:1003400010F8014B1D1108BF10F8015B641E05D0A9
:1003500010F8016B641E01F8016BF9D113F0080F5E
:100360001EBF10F8014BAD1C0C1B09D16D1E58BFF0
:1003700001F801CBFAD505E014F8016B01F8016B27
:100380006D1EF9D59142D6D370470000704700002A
:100390000023002400250026103A28BF78C1FBD88E
:1003A000520728BF30C148BF0B6070471FB515F01A
:1003B00038FC9DE8030000F0E5F91FBD10B510BD45
:1003C00000F04AFA1146FFF7F1FF13F069FA00F066
:1003D00068FA03B4FFF7F2FF03BC00F099FA0000DB
:1003E0000A4880470A4880470A480047FEE7FEE778
:1003F000FEE7FEE7FEE7FEE7FEE7FEE7FEE7FEE7D5
:1004000005480649064A074B70470000891800084E
:10041000B1D50008CD02000810C9012410E1012463
:1004200010D1012410D1012470B5064600F08EF9D8
:10043000056806F10B0020F00704B4429CBF0020C1
:1004400070BD2B466A68BAB11068A04210D304F19F
:10045000080188423CBF5068586007D351681019A2
:1004600041601168091B016058601460101D70BD67
:1004700013465268002AE7D12146284600F06EF95B
:100480000028DED170BD70B50446051F00F05EF98E
:100490000068002C14BF446870BD002C18BFAC422B
:1004A0003CBF20466468F8D301680A18AA4218BF06
:1004B000456003D12A680546114401602868411946
:1004C000A1421CBF6C6070BD61686960216808440E
:1004D000286070BD53EA020C00F069802DE9F04BF2
:1004E0004FF00006002B1FBFB3FA83F503FA05F4A3
:1004F00024FA05F65E4012BF1643B2FA82F502FAFC
:1005000005F4C5F120051EBF22FA05FC44EA0C04DF
:10051000203556EA044C4FEA144418BF641C4FF0CF
:1005200000084FF00009904271EB030C39D3002909
:1005300019BFB1FA81F701FA07F6B0FA80F700FAAD
:1005400007F6C7F120071EBF20FA07FC46EA0C0693
:100550002037B6FBF4FCA7EB0507103F07F01F0B95
:10056000CBF120062CFA06F60CFA0BFB44BFB3467F
:100570000026202FA4BF5E464FF0000B5BEA060C5E
:1005800008BF4FF0010B19EB0B0948EB0608ABFB5A
:10059000027C06FB02CC0BFB03CCC01B71EB0C01F5
:1005A000C1E70B46024641464846BDE8F08B13B50D
:1005B000084318BF4FF0FF300146AFF30080BDE89D
:1005C0001C407047032A40F2308010F0030C00F00A
:1005D000158011F8013BBCF1020F624498BF11F87D
:1005E00001CB00F8013B38BF11F8013BA2F1040236
:1005F00098BF00F801CB38BF00F8013B11F00303AE
:1006000000F02580083AC0F0088051F8043B083A11
:1006100051F804CBA0E80810F5E7121D5CBF51F8B3
:10062000043B40F8043BAFF30080D20724BF11F82D
:10063000013B11F801CB48BF11F8012B24BF00F892
:10064000013B00F801CB48BF00F8012B704710B503
:10065000203AC0F00B80B1E81850A0E81850B1E87B
:100660001850A0E81850203ABFF4F5AF5FEA027CBA
:1006700024BFB1E81850A0E8185044BF18C918C0EA
:10068000BDE810405FEA827C24BF51F8043B40F88B
:10069000043B08BF7047D20728BF31F8023B48BF70
:1006A00011F8012B28BF20F8023B48BF00F8012BAE
:1006B00070474FF000020429C0F0128010F0030CC4
:1006C00000F01B80CCF1040CBCF1020F18BF00F845
:1006D000012BA8BF20F8022BA1EB0C0100F00DB8F4
:1006E0005FEAC17C24BF00F8012B00F8012B48BF52
:1006F00000F8012B70474FF0000200B513469446F6
:100700009646203922BFA0E80C50A0E80C50B1F169
:100710002001BFF4F7AF090728BFA0E80C5048BF7D
:100720000CC05DF804EB890028BF40F8042B08BF1B
:10073000704748BF20F8022B11F0804F18BF00F817
:10074000012B7047704770477047000000487047A2
:1007500058020024704770477047704738B5044608
:100760000A4600206946AFF30080002808BF38BD64
:1007700002460099204600F04DF8012038BD0120C6
:1007800000F062B8F8B5AFF30080054600200C46D3
:100790000C2000BF0646A819A0420DD93246694672
:1007A0000020AFF30080070008BF00F04DF800986C
:1007B000A04218BF0546C419FFF7C8FF05600746E9
:1007C000F01D20F007004619284600F00AF8B44250
:1007D00008BFF8BDA21B31463868BDE8F84000F0FC
:1007E00019B800210160416070470C20704710B5B6
:1007F00000F00CF8006810BD10B5044600F006F8D3
:10080000046010BD00487047500200240048704743
:1008100050020024034640688C46002818BF8842D6
:100820003CBF03464068F8D318681844884207D094
:100830000CF1030020F00700001D411A521A014676
:10084000081D0A60FFF71FBE10B500F039F8BDE8BB
:10085000104000F02FB870477546FFF7D3FFAE4643
:1008600005006946534620F00700854618B020B5BC
:10087000FFF7C6FDBDE820404FF000064FF000072F
:100880004FF000084FF0000BAC46ACE8C009ACE8F4
:10089000C009ACE8C009ACE8C00921F007018D46E9
:1008A000704710B50446AFF300802046BDE8104005
:1008B000FFF78FBD002801D000F02AB87047000074
:1008C00010B5012805D0002103A000F027F8012071
:1008D00010BD09A1F8E7000053494752544D454D5A
:1008E0003A204F7574206F662068656170206D65D1
:1008F0006D6F7279000000003A2048656170206DCC
:10090000656D6F727920636F7272757074656400C3
:1009100001491820ABBEFEE72600020070B505466F
:100920000C460A2000E06D1C00F011F835B1287863
:100930000028F8D102E0641C00F009F814B1207816
:100940000028F8D1BDE870400A20AFF3008008B558
:1009500069468DF800000320ABBE08BD0000000012
:1009600080B543F2AC304CF25851C2F20040C2F2B2
:1009700001414FF4807208F0F3FA42F6F81040F2A9
:100980000F41C2F20040C4F20201006888426FF0D9
:10099000080111DC6F22C4F20202904222DC3F22E5
:1009A000C4F20202904239DC1022C4F202029042E8
:1009B0005CD0282254E000BF40F26F42C4F2020231
:1009C00090421BDC40F23F42C4F2020290422DDC16
:1009D00040F21042C4F20202904247D040F2284254
:1009E0003EE000BF9F22C4F20202904228DC702247
:1009F000C4F20202904239D0882231E040F29F4294
:100A0000C4F20202904223DC40F27042C4F20202BD
:100A100090422BD040F2884222E000BF4022C4F234
:100A20000202904222D058221AE000BF40F2404217
:100A3000C4F20202904219D040F2584210E000BFC6
:100A4000A022C4F20202904210D0B82208E000BFF7
:100A500040F2A042C4F20202904207D040F2B842F3
:100A6000C4F20202904218BF6FF004010268114004
:100A7000016080BD0000000010B54CF25854C2F275
:100A800001442078AB283BD194F83F00FD2818BFE3
:100A900010BD41F6CC40D4F80110C2F20040D4F8A9
:100AA0000520C161D4F80910C165B4F811100186A0
:100AB000B4F81310A0F85010B4F81510A0F8701086
:100AC000B4F81710C263D4F80D20C2671E22A0F834
:100AD000901041F60C70C2F20040D4F81910C0F822
:100AE000581240F2CC5004F11D01C2F20040FFF751
:100AF00069FD40F2146194F83E00C2F200410870B2
:100B000010BD00000000000041F6CC4040F2F4416E
:100B1000C2F20040C2F2004190ED060A90ED0A1ABE
:100B200090ED0E2A31EE400A90ED123A33EE421A61
:100B300090ED1A2A90ED163A10EE102A32EE432A62
:100B400090ED223AC1F8022090ED1E4A33EE440A9D
:100B500011EE103A12EE102AC1F80630C1F80A2040
:100B6000C26A4A82C26C8A82C26ECA82D0F88C0083
:100B7000088341F60C7040F6B442C2F20040C2F263
:100B8000004210EE103A406EC1F81A001068C1F829
:100B90001E000878D2F8032081F83F00FE2081F87B
:100BA000400043F2AC30C1F82120C2F200404022A4
:100BB000C1F80E30AA2301F8013F09F091B80000F6
:100BC00040F600000121C5F60200012203F054BEE8
:100BD00040F600000121C5F60200002203F04CBEE1
:100BE000704700000000000040F600000821C5F634
:100BF0000200012203F040BE40F600000821C5F6C5
:100C00000200002203F038BE704700000000000020
:100C1000002808BF704710B54EF2180145F2003C9D
:100C2000CEF20001C0F2070C03E000BF013802045D
:100C30001AD051F804EC0B68002208E01A449C42D8
:100C4000A2EB0402234628BF72446245EED20C6830
:100C50009C42F3D10C689C4204BF0C689C42EDD1CD
:100C60000C689C42F3D0E9E7BDE8104070470000F3
:100C700080B54EF21801C0EB0010CEF200014FEA31
:100C8000401E002351F804CC0A6808E01344904247
:100C9000A3EB0003024628BF634473450CD20868E7
:100CA0009042F3D10868904204BF08689042EDD1A9
:100CB00008689042F3D0E9E780BD00000000000022
:100CC00010B5FFF78DFFFFF79FFF12F009FB0446F9
:100CD00012F032FC204310BD2DE9F04F83B0029298
:100CE0000E460190FFF774FF922000F0C1F89220A9
:100CF00000F0BEF8552000F0BBF88046552000F00B
:100D0000B7F88346552000F0B3F88246552000F02E
:100D1000AFF80446552000F0ABF80746552000F028
:100D2000A7F80546FFF74CFF48EA0B2040F2C00940
:100D300000B2C2F2004900EE100A4AEA042000B2F2
:100D400099ED001AB8EEC00A21EE000A01EE100A71
:100D500047EA052086ED000A00B299ED002A00EE70
:100D6000100AB8EEC11AB8EEC00A22EE011A86EDDA
:100D7000011A22EE000A86ED020AFFF73DFF8020ED
:100D800000F076F8552000F073F80646552000F084
:100D90006FF8552000F06CF88246552000F068F896
:100DA0000546552000F064F88346552000F060F8B1
:100DB0000446552000F05CF80746552000F058F82E
:100DC0008046FFF711FF0F2E25D14AEA052099ED45
:100DD000011A00B2019900EE100A4BEA042000B299
:100DE000B8EEC00A21EE000A01EE100A47EA082018
:100DF00081ED000A00B299ED012A00EE100AB8EE6A
:100E0000C11AB8EEC00A22EE011A81ED011A22EED3
:100E1000000A81ED020AFFF7DBFEA22000F028F8AD
:100E2000A22000F025F8552000F022F846B2044632
:100E3000552000F01DF80546FFF7C2FEE0004FF612
:100E4000000140EA5510CFF6FF71002EB4EE001AF3
:100E500048BF0843B3EE072A00EE100A0298B8EE26
:100E6000C00AA0EE012A80ED002A03B0BDE8F08F91
:100E700080B582B08DF8070043F2AC10C2F200409A
:100E80000DF107010DF1060201234FF47A7CCDF834
:100E900000C006F08DFD9DF8060002B080BD000088
:100EA00010B543F234200421C2F2004007F084FD63
:100EB00043F2D8443221C2F2004420460CF064F8D8
:100EC00043F2EC410422C2F200412046BDE810404A
:100ED0000CF022B80000000081B170B543F2D84692
:100EE0000C460546C2F20046304629460CF018F87A
:100EF000013C05F10405F7D1BDE8704040F2BC208B
:100F00000021C2F2004002220023006813F000BD5D
:100F1000FEE700000000000070B58AB042F6E82548
:100F200002ACC2F2004500260220049001202146B6
:100F3000CDE9050628460796CDE9026602F09CFC3D
:100F40000221022200232846009602F0DDFC012146
:100F50000022284602F09CFB4FF000710022284638
:100F600002F096FB01210122284602F055FC28469A
:100F700003F06AFB42F688352146C2F20045284656
:100F800002F07AFC0221022200232846009602F099
:100F9000BBFC01210122284602F03EFC0121002277
:100FA000284602F075FB4FF000710022284602F03F
:100FB0006FFB284603F048FB42F628452146C2F263
:100FC0000045284602F058FC022102220023284650
:100FD000009602F099FC01210122284602F01CFC37
:100FE00001210022284602F053FB4FF0007100223D
:100FF000284602F04DFB284603F026FB0AB070BDE0
:101000000020704700000000002070470000000032
:1010100010B542F2D43441F2BB41C2F20044C2F2F4
:101020000041002220460EF013FF40F6BB4120464F
:10103000C2F200410EF0FCFE002010BD00000000D6
:10104000B0B5044643F2D440C2F2004009680160E2
:10105000204611F0ADF942F2D4352146C2F20045E6
:1010600028460EF0E5FE28460EF0BEFE0020B0BD7C
:10107000002070470000000042F2D432C2F2004269
:10108000D2F8BC22D2F81422002A1CBF01207047DB
:1010900010B542F2D4340A46C2F20044014620465A
:1010A0000EF0D6FE2046BDE810400EF055BF000001
:1010B000B7EE002A90ED1D3A90ED1C4A30EE600A22
:1010C00090ED165A32EE432A90ED146AD0ED060ADE
:1010D000D0ED021AF1EE602A22EE042A90ED1A4AAF
:1010E000016E80ED180AC165A1EE432A90ED153A14
:1010F000A0EE034A80ED1C2A25EE023A90ED1F5A1D
:10110000B1EE457A84FE455AA0EE063AB4EE474A5F
:10111000F1EE10FA35FE074A90ED1E5AB1EE456A1F
:1011200090ED037A80ED1A4A33EE043A90ED084AC6
:1011300080ED047A83FE455AB4EE463AF1EE10FA99
:1011400035FE063A90ED096A80ED193A33EE411A00
:10115000B1EE443AB0EEC15AB4EE456A9FED175A6B
:10116000F1EE10FA90ED056A35FE011A90ED015A84
:1011700080ED031AA1EE056A31EE475A21EE855A39
:10118000C6FE600AB4EE626A90ED006AF1EE10FAF3
:10119000A1EE065A30FEA26A80ED056A35EE060A17
:1011A00080FE442AB4EE430AF1EE10FA32FE030A3E
:1011B00080ED070A80ED200A704700BF00000000A4
:1011C00080EC030AC0ED092A80ED0A2AC0ED0B1A53
:1011D0007047000000000000018000994280838079
:1011E000817170470000000042F2B060C2F200401E
:1011F00001F006B90000000042F22870C2F200407F
:1012000001F0FEB80000000042F61800C2F20040F3
:1012100001F0F6B80000000042F69000C2F2004073
:1012200001F0EEB80000000042F2A070C2F20040EF
:1012300001F0E6B80000000042F67020C2F2004063
:1012400001F0DEB80000000042F6F810C2F20040E3
:1012500001F0D6B80000000042F60810C2F20040CB
:1012600001F0CEB80000000042F68010C2F200404B
:1012700001F0C6B80000000040F20F42D0F800C0F4
:10128000C4F20202944511DC6F22C4F202029445BA
:1012900022DC3F22C4F20202944539DC1022C4F25F
:1012A000020294455AD0282254E000BF40F26F4217
:1012B000C4F2020294451BDC40F23F42C4F2020237
:1012C00094452DDC40F21042C4F20202944545D010
:1012D00040F228423EE000BF9F22C4F20202944541
:1012E00028DC7022C4F20202944537D0882231E013
:1012F00040F29F42C4F20202944523DC40F2704265
:10130000C4F20202944529D040F2884222E000BF94
:101310004022C4F20202944520D058221AE000BFB5
:1013200040F24042C4F20202944517D040F25842C3
:1013300010E000BFA022C4F2020294450ED0B822F1
:1013400008E000BF40F2B842C4F20202944505D062
:1013500040F2A042C4F20202944517D10CF0F80208
:101360004AF6AB23103ACAF6AA23A2FB03310AA31A
:101370005F2AC1F302115B5C40F2FF312CEA0101EC
:10138000C36588BF04318165084670472CF0FF01B2
:1013900081650846704700BF00061016000610164B
:1013A00070B540F26F44D0F800C0C4F20204D0F827
:1013B00058E0A4451ADC9F25C4F20205AC4533DC95
:1013C0005725C4F20205AC455ADC1025C4F20205CB
:1013D000AC4500F098802825C4F20205AC4500F029
:1013E00092804025C4F202058AE000BF45F22F45F5
:1013F000C5F60205AC452DDC40F2B745C4F2020546
:10140000AC454BDC40F27045C4F20205AC457AD0E5
:1014100040F28845C4F20205AC4574D040F2A045C4
:10142000C4F202056CE000BF40F22745C4F2020599
:10143000AC4543DCA025C4F20205AC4563D0B82519
:10144000C4F20205AC455ED040F21045C4F202057C
:1014500056E000BF45F26B45C5F60205AC453FDCE2
:1014600045F23045C5F60205AC454CD045F2444541
:10147000C5F60205AC4546D045F258453EE000BFF2
:101480005825C4F20205AC453DD07025C4F20205D2
:10149000AC4538D08825C4F2020531E040F2B845A9
:1014A000C4F20205AC452ED045F20845C5F602054A
:1014B000AC4528D045F21C4520E000BF40F228454D
:1014C000C4F20205AC451ED040F24045C4F202050C
:1014D000AC4518D040F25845C4F2020510E000BFF8
:1014E00045F26C45C5F60205AC450CD045F2944575
:1014F000C5F60205AC4506D045F28045C5F60205A5
:10150000AC4540F0D080456EC66E002E866E6E6093
:101510001CBFD0E91C566E60A44515DC9F24C4F2A4
:101520000204A4452CDC5724C4F20204A44551DC77
:101530001024C4F20204A4457AD02824C4F2020480
:10154000A44575D040246FE045F22F44C5F602044F
:10155000A44529DC40F2B744C4F20204A44545DCAA
:1015600040F27044C4F20204A44561D040F28844C1
:10157000C4F20204A4455BD040F2A04454E000BF92
:1015800040F22744C4F20204A4453FDCA024C4F284
:101590000204A4454CD0B824C4F20204A44547D0A8
:1015A00040F2104440E000BF45F26B44C5F602042F
:1015B000A44555DC45F23044C5F60204A44561D08B
:1015C00045F24444C5F60204A4455BD045F25844B4
:1015D00054E000BF5824C4F20204A44528D070246B
:1015E000C4F20204A44523D088241DE040F2B8448C
:1015F000C4F20204A4451BD045F20844C5F6020417
:10160000A4453FD045F21C4438E000BF40F22844D6
:10161000C4F20204A4450BD040F24044C4F20204D8
:10162000A44505D040F25844C4F20204A4453AD17E
:101630008468C06D00F01F003F2505FA00F0CEF869
:101640000800DCF80000402C20F48020CCF80000DA
:10165000CCF8043023D1CCF80820CCF80C1070BDA5
:1016600045F26C44C5F60204A4450BD045F2804413
:10167000C5F60204A44505D045F29444C5F602041B
:10168000A44510D1C46D012504F01F04806805FA3B
:1016900004F4CEF804404028CCF80430DBD0CCF879
:1016A0000810CCF80C2070BD2DE9F0410378427889
:1016B00062F30A23A3F58068A1F8008090F801C0C6
:1016C000A3F2CF3390F802E0632B4FEADC026EF313
:1016D0004A12A2F580644C8090F802C0077990F815
:1016E00003E0A2F2CF324FEA8E0646EA9C1667F379
:1016F0008A26A6F580678F8090F804C090F805E0F0
:1017000038BF4FF00008632A4FEA5C05A1F800805B
:10171000A6F2CF3238BF00246EF3CA15632A4C807C
:10172000A5F5806C38BF0027A5F2CF32632A8F80E1
:1017300038BF4FF0000C0A7A8A724A7AA1F806C0C4
:10174000CA72427992090A724279C2F301124A724C
:10175000C2888A810289CA8142890A82027B8A748C
:10176000427BCA74C2898A82008AA0F58060C882DE
:10177000BDE8F0810000000080B54EF6FC514FF04E
:10178000000CCEF200010A6842F080720A6041F259
:10179000000144F24022CEF20001C0F20F02504399
:1017A00044F6D352C1F804C0C1F262020B68A0FB38
:1017B000022E4DF6836243F001030B6040F270414C
:1017C000C4F21B32C2F20041A0FB022308604FEAC0
:1017D0009E104860980CC1E9020C80BD000000001A
:1017E000704700000000000041F61C606422C2F255
:1017F00000400021C823026042618262C263C0F8D7
:10180000A020012280F8A8204FF4FA72C0F8C82066
:10181000C0F8DC204AF6F1120172C0F60002C0E9FD
:1018200003110177C0E9081180F83010C0E90D11EB
:1018300080F84410C0E91211036580F85810C0E91F
:101840001711436680F86C10C0E91C11836780F89B
:101850008010C0E92111C0F88C3080F89410C0E9E4
:101860002611C0E92B1180F8D010C0E9351180F89D
:10187000E410C0E93A217047EFF3108072B600BF60
:10188000FEE700000000000044F60400C5F6020078
:10189000816841F0020181600168890409D401680E
:1018A00089045CBF01685FEA814102D40168890450
:1018B000F2D570470000000042F6E820C2F2004076
:1018C00002F096B90000000042F6E820C2F20040A3
:1018D00002F08EB90000000042F68830C2F20040EB
:1018E00002F086B90000000042F68830C2F20040E3
:1018F00002F07EB90000000042F62840C2F200402B
:1019000002F076B90000000042F62840C2F2004022
:1019100002F06EB90000000040F2B060C2F2004078
:1019200090ED690A7047000040F2B060C2F20040DA
:1019300090ED680A7047000040F2B060C2F20040CB
:1019400090ED6A0A7047000010B52DED0C8B9FEDED
:101950004ECA41F60C749FED4F9AB1EE080AF0EEB4
:101960004C0AB0EE492AC2F200449FED481A04F531
:10197000C870DFED471A0BF03FFA9FED488AB0EED2
:10198000492AF0EE480A04F5F0709FED430A9FEDF6
:10199000441ADFED441ADFED442AFFF711FCB2EEE2
:1019A00004AABAEE001A04F5DC709FED400ADFEDE0
:1019B000400AB0EE4A2ADFED3F1A0BF01DFA9FED08
:1019C0003EBAB0EE001AB0EE4B0AF0EE4C0AF0EE62
:1019D0004C1AB0EE4C2A04F5B4700BF00DFA9FEDE2
:1019E00039CAB0EE0C1AF0EE4C1AB0EE492A04F1E6
:1019F00020009FED320ADFED320A0BF0FDF904F111
:101A000070009FED310ADFED310A9FED311ADFEDF5
:101A1000311A9FED312ADFED312AFFF7D1FB9FED1F
:101A200030DAF6EE000AB0EE4D0AF0EE4C1A04F190
:101A300048009FED2C1A9FED2C2A0BF0DDF99FED4D
:101A40002DCAB0EE4A1AF0EE491AB0EE4C2A04F153
:101A5000C4009FED260ADFED260A0BF0CDF904F550
:101A60008A709FED250ADFED250AB0EE4D1AF0EEE3
:101A70004B1AB0EE4C2AF0EE482ABDEC0C8BBDE8B8
:101A80001040FFF79DBB00BF00000000CDCCCC3E56
:101A90000000FA4300C0DA45000096423333333F7A
:101AA0000000F042000048439A99193FCDCC4CBF4A
:101AB0006F1283BA6666A63F0000C8429A99B94081
:101AC0000AD7A33C00007A44000014428FC2F53CC0
:101AD00000002D4300002F440000FA446666E63EF5
:101AE0000000964300409C4500606A460000484262
:101AF000CDCCCC3D0060EA4600001643CDCC4C3F37
:101B000010B52DED048B41F60C7440F2B841C2F2D1
:101B10000044C2F200419FED368BB4F90C0391ED05
:101B20000D1AB7EEC12A84ED2A1AA0F6962000EE0F
:101B3000100A88699FED309BC4F8B800086BB8EEB6
:101B4000C00BC4F84C0120EE080BA0EE092BDFED12
:101B50002C0AB7EEC20B84ED010A94ED2B0A31EE8C
:101B6000400A91ED042AB1EE422A84ED552A0AF08A
:101B70007FFA94ED2C1A70EE010A94ED2F0AC4ED51
:101B80002C0A0AF075FAB4F90C0394ED2C2AB7EE7E
:101B9000C22A41F6CC41A0F69620C2F2004101EEE5
:101BA000100AD4F8A800C4F8AC0091F84C0184EDF8
:101BB0002F0AB8EEC11B012821EE081BA1EE092B4C
:101BC000B7EEC20B84ED030A0ED140F26E50C2F2A2
:101BD0000040407A022807D194ED060A9FED091AC9
:101BE00030EE010A84ED060ABDEC048B10BD00BF87
:101BF00000000000000020BF0000000000807640D0
:101C0000000000000000344240F26E50C2F200407A
:101C1000B0F91A10002011F5C87FB8BF0120704735
:101C20002DE9F041044602F02FFE1CB3054694F85E
:101C30003500022822D140F20F472668C4F202077D
:101C400040F26F48BE426FF00E00C4F202081DDC85
:101C50006F21C4F202018E422ADC3F21C4F202014C
:101C60008E4241DC1021C4F202018E4263D0282151
:101C70005CE000BF0120BDE8F08100BF802060650E
:101C80000120002184F83410BDE8F08146451BDCBA
:101C900040F23F41C4F202018E422DDC40F210417D
:101CA000C4F202018E4246D040F228413EE000BF1D
:101CB0009F21C4F202018E4228DC7021C4F202018D
:101CC0008E4238D0882131E040F29F41C4F20201B7
:101CD0008E4223DC40F27041C4F202018E422AD0CF
:101CE00040F2884122E000BF4021C4F202018E424E
:101CF00021D058211AE000BF40F24041C4F2020155
:101D00008E4218D040F2584110E000BFA021C4F22A
:101D100002018E420FD0B82108E000BF40F2B84166
:101D2000C4F202018E4206D040F2A041C4F2020188
:101D30008E42314607D13146306820F01E0041F80E
:101D4000140B6FF080000A68464500EA0200086044
:101D50001ADC9F20C4F20200864233DC5720C4F212
:101D6000020086425ADC1020C4F20200864200F0D3
:101D700097802820C4F20200864200F09180402023
:101D8000C4F202008AE000BF45F22F40C5F602000F
:101D900086422DDC40F2B740C4F2020086424BDCA2
:101DA00040F27040C4F20200864279D040F288408E
:101DB000C4F20200864273D040F2A040C4F2020096
:101DC0006CE000BF40F22740C4F20200864243DCD0
:101DD000A020C4F20200864262D0B820C4F2020001
:101DE00086425DD040F21040C4F2020056E000BFCF
:101DF00045F26B40C5F6020086423FDC45F23040BA
:101E0000C5F6020086424BD045F24440C5F60200BA
:101E1000864245D045F258403EE000BF5820C4F20B
:101E2000020086423CD07020C4F20200864237D0C5
:101E30008820C4F2020031E040F2B840C4F202004F
:101E400086422DD045F20840C5F60200864227D0D2
:101E500045F21C4020E000BF40F22840C4F20200DE
:101E600086421DD040F24040C4F20200864217D0A4
:101E700040F25840C4F2020010E000BF45F26C404E
:101E8000C5F6020086420BD045F29440C5F602002A
:101E9000864205D045F28040C5F60200864204D154
:101EA000206E016821F480710160306820F001002B
:101EB000306000BF3068C00710D002F0E5FC401B66
:101EC0000628F7D320206065032084F83500012020
:101ED000002184F83410BDE8F08100BF206808219B
:101EE000B8424FF03F0211DC6F23C4F20203984264
:101EF0001EDC3F23C4F20203984235DC1023C4F2F7
:101F00000203984257D0282350E000BF40451BDC15
:101F100040F23F43C4F2020398422DDC40F21043EA
:101F2000C4F20203984246D040F228433EE000BF8C
:101F30009F23C4F20203984228DC7023C4F20203F8
:101F4000984238D0882331E040F29F43C4F2020324
:101F5000984223DC40F27043C4F2020398422AD034
:101F600040F2884322E000BF4023C4F202039842BB
:101F700021D058231AE000BF40F24043C4F20203CC
:101F8000984218D040F2584310E000BFA023C4F29A
:101F9000020398420FD0B82308E000BF40F2A043EC
:101FA000C4F20203984206D040F2B843C4F20203DE
:101FB000984240F0C580D4E9163707F01F07404526
:101FC00002FA07F25A5019DC9F21C4F2020188423A
:101FD00032DC5721C4F20201884259DC1021C4F2DC
:101FE0000201884200F096802821C4F20201884252
:101FF00000F090804021C4F2020189E045F22F41B7
:10200000C5F6020188422DDC40F2B741C4F202015C
:1020100088424BDC40F27041C4F20201884279D020
:1020200040F28841C4F20201884273D040F2A041DC
:10203000C4F202016CE000BF40F22741C4F2020189
:10204000884243DCA021C4F20201884262D0B82158
:10205000C4F2020188425DD040F21041C4F2020194
:1020600056E000BF45F26B41C5F6020188423FDCF5
:1020700045F23041C5F6020188424BD045F2444159
:10208000C5F60201884245D045F258413EE000BF06
:102090005821C4F2020188423CD07021C4F20201EE
:1020A000884237D08821C4F2020131E040F2B841C1
:1020B000C4F2020188422DD045F20841C5F6020162
:1020C000884227D045F21C4120E000BF40F2284161
:1020D000C4F2020188421DD040F24041C4F2020124
:1020E000884217D040F25841C4F2020110E000BF0C
:1020F00045F26C41C5F6020188420BD045F294418D
:10210000C5F60201884205D045F28041C5F60201BC
:1021100088420BD1616EA26EE06E4A6030B10168F8
:1021200021F480710160D4E91C014160012084F830
:1021300035000020002184F83410BDE8F08100BF94
:102140000421012237E70000F0B190F83510022990
:1021500018D180B540F20F420168C4F202029142E8
:1021600014DC6F23C4F20203994225DC3F23C4F23E
:10217000020399423CDC1023C4F2020399425DD071
:10218000282357E0802141650120704740F26F43CA
:10219000C4F2020399421BDC40F23F43C4F2020343
:1021A00099422DDC40F21043C4F20203994245D01B
:1021B00040F228433EE000BF9F23C4F2020399424D
:1021C00028DC7023C4F20203994237D0882331E01F
:1021D00040F29F43C4F20203994223DC40F2704371
:1021E000C4F20203994229D040F2884322E000BFA2
:1021F0004023C4F20203994220D058231AE000BFC2
:1022000040F24043C4F20203994217D040F25843CF
:1022100010E000BFA023C4F2020399420ED0B823FD
:1022200008E000BF40F2B843C4F20203994205D06F
:1022300040F2A043C4F20203994275D191424FF09B
:10224000040280F8352011DC6F20C4F202008142C4
:1022500022DC3F20C4F20200814239DC1020C4F2AB
:102260000200814259D0282054E000BF40F26F4064
:10227000C4F2020081421BDC40F23F40C4F2020083
:1022800081422DDC40F21040C4F20200814244D071
:1022900040F228403EE000BF9F20C4F2020081428D
:1022A00028DC7020C4F20200814236D0882031E060
:1022B00040F29F40C4F20200814223DC40F27040B1
:1022C000C4F20200814228D040F2884022E000BFE0
:1022D0004020C4F2020081421FD058201AE000BF03
:1022E00040F24040C4F20200814216D040F2584011
:1022F00010E000BFA020C4F2020081420DD0B8203F
:1023000008E000BF40F2B840C4F20200814204D0AD
:1023100040F2A040C4F202008142086820F00100AF
:102320000860002080BD00BF0A6822F00E020A602B
:1023300045F25742C5F6020291420A6822F00102B4
:102340000A600FDC45F22F42C5F60202914219DC09
:1023500045F20842C5F60202914229D045F21C42DC
:1023600022E000BF45F27F42C5F60202914213DC33
:1023700045F25842C5F60202914219D045F26C422C
:1023800012E000BF45F23042C5F6020291420FD082
:1023900045F2444208E000BF45F29442C5F602020D
:1023A000914205D045F28042C5F6020291421AD10F
:1023B000D0E9181CD0E916E30A6822F480720A609A
:1023C00003F01F01012202FA01F1CEF80410816E20
:1023D000CCF80410C16E31B10A6822F480720A6030
:1023E000D0E91C124A60012180F83510016D0022ED
:1023F000002980F8342094D08847002080BD000058
:102400002DE9F04782B00021019140F2A80148F285
:10241000B513C2F20041C1F64E33856D40F26F49EB
:102420000A680168C4F202092E68A2FB0328494524
:102430002A6815DC9F22C4F2020291422CDC57224A
:10244000C4F20202914251DC1022C4F20202914213
:102450007BD02822C4F20202914276D040226FE063
:1024600045F22F43C5F60203994229DC40F2B743F7
:10247000C4F20203994245DC40F27042C4F2020207
:10248000914262D040F28842C4F2020291425CD092
:1024900040F2A04254E000BF40F22742C4F20202E0
:1024A00091423FDCA022C4F2020291424DD0B822F8
:1024B000C4F20202914248D040F2104240E000BF14
:1024C00045F26B43C5F60203994275DC45F2304391
:1024D000C5F60203994200F0828045F24443C5F6F6
:1024E000020399427BD045F2584373E05822C4F26C
:1024F0000202914229D07022C4F20202914224D0F9
:1025000088221DE040F2B843C4F2020399421CD075
:1025100045F20843C5F60203994260D045F21C43D8
:1025200058E000BF40F22842C4F2020291420CD0AF
:1025300040F24042C4F20202914206D040F25842B8
:10254000C4F20202914240F05383C26D082302F0AC
:102550001F0240F20F4A9340C4F2020A334200F0D5
:10256000DE8051454FF0040412DC6F27C4F20207ED
:10257000B9426DDC3F27C4F20207B94200F39C80E8
:102580001027C4F20207B94200F0BD802827B5E049
:10259000494569DC40F23F47C4F20207B94200F303
:1025A000938040F21047C4F20207B94200F0AB80BA
:1025B00040F22847A2E000BF45F26C43C5F6020393
:1025C00099420CD045F28043C5F60203994206D0E9
:1025D00045F29443C5F60203994240F009830B6823
:1025E000C76D07F01F070426BE40164218BF13F040
:1025F000040423D10226BE40164218BF13F0020481
:1026000042D1FA40120740F1F38213F0080200F0C1
:10261000EF820A6822F00E020A60012101FA07F235
:102620006A60416580F83510C16C00294FF00002E6
:1026300080F8342040F0D882DAE200BF1A046E60DD
:1026400034D49A0636D40A6822F004020A6031E0D3
:102650009F27C4F20207B94240DC7027C4F2020788
:10266000B94250D0882749E040F29F47C4F20207A0
:10267000B9423BDC40F27047C4F20207B94242D093
:1026800040F288473AE000BF1A046E6000F1B4825D
:102690009A0600F1B5820A6822F00A020A60012156
:1026A00080F83510002180F83410A9E2D90301D454
:1026B000816C98E2016C96E24027C4F20207B942AD
:1026C00021D058271AE000BF40F24047C4F2020769
:1026D000B94218D040F2584710E000BFA027C4F21A
:1026E0000207B9420FD0B82708E000BF40F2A04768
:1026F000C4F20207B94206D040F2B847C4F202075A
:10270000B94218BF08240F68274208D00F6827F085
:1027100004070F60AB60436D43F001034365012381
:10272000934033426FD0514510DC6F27C4F202074B
:10273000B9421DDC3F27C4F20207B94234DC10273E
:10274000C4F20207B94256D028274FE049451BDCA6
:1027500040F23F47C4F20207B9422DDC40F2104775
:10276000C4F20207B94246D040F228473EE000BF1B
:102770009F27C4F20207B94228DC7027C4F202077F
:10278000B94238D0882731E040F29F47C4F20207AF
:10279000B94223DC40F27047C4F20207B9422AD0A2
:1027A00040F2884722E000BF4027C4F20207B94246
:1027B00021D058271AE000BF40F24047C4F2020778
:1027C000B94218D040F2584710E000BFA027C4F229
:1027D0000207B9420FD0B82708E000BF40F2A04777
:1027E000C4F20207B94206D040F2B847C4F2020769
:1027F000B94240F007824F693F0604D5AB60436D94
:1028000043F0020343650423934033426FD05145A4
:1028100010DC6F27C4F20207B9421DDC3F27C4F267
:102820000207B94234DC1027C4F20207B94256D07D
:1028300028274FE049451BDC40F23F47C4F202071E
:10284000B9422DDC40F21047C4F20207B94246D02B
:1028500040F228473EE000BF9F27C4F20207B9427A
:1028600028DC7027C4F20207B94238D0882731E04B
:1028700040F29F47C4F20207B94223DC40F270479E
:10288000C4F20207B9422AD040F2884722E000BFD2
:102890004027C4F20207B94221D058271AE000BFEE
:1028A00040F24047C4F20207B94218D040F25847FC
:1028B00010E000BFA027C4F20207B9420FD0B8272A
:1028C00008E000BF40F2A047C4F20207B94206D0B8
:1028D00040F2B847C4F20207B94240F09B810F684A
:1028E000BF0704D5AB60436D43F004034365102379
:1028F00003FA02F2324200F0828051454FF00803A1
:1029000010DC6F27C4F20207B9421DDC3F27C4F276
:102910000207B94234DC1027C4F20207B94256D08C
:1029200028274FE049451BDC40F23F47C4F202072D
:10293000B9422DDC40F21047C4F20207B94246D03A
:1029400040F228473EE000BF9F27C4F20207B94289
:1029500028DC7027C4F20207B94238D0882731E05A
:1029600040F29F47C4F20207B94223DC40F27047AD
:10297000C4F20207B9422AD040F2884722E000BFE1
:102980004027C4F20207B94221D058271AE000BFFD
:1029900040F24047C4F20207B94218D040F258470B
:1029A00010E000BFA027C4F20207B9420FD0B82739
:1029B00008E000BF40F2A047C4F20207B94206D0C7
:1029C00040F2B847C4F20207B94218BF04230F68A7
:1029D0001F4214D0AA600A6852030A6808D4D205BC
:1029E00008D40A6822F008020A60016C21B906E0E6
:1029F000110351D4016C11B1044688472046C16DC2
:102A000001F01F02202101FA02F3334200F0AF80EF
:102A100001681027514511DC6F26C4F20206B1424D
:102A20001EDC3F26C4F20206B14239DC1026C4F295
:102A30000206B1425BD0282654E000BF49451BDCAA
:102A400040F23F46C4F20206B14231DC40F2104689
:102A5000C4F20206B1424AD040F2284642E000BF2A
:102A60009F26C4F20206B1422CDC7026C4F2020694
:102A7000B1423CD0882635E040F29F46C4F20206BF
:102A8000B14227DC40F27046C4F20206B1422ED0B9
:102A900040F2884626E000BF816C0029ACD1AEE749
:102AA0004026C4F20206B14221D058261AE000BFE7
:102AB00040F24046C4F20206B14218D040F25846F5
:102AC00010E000BFA026C4F20206B1420FD0B82623
:102AD00008E000BF40F2A046C4F20206B14206D0B0
:102AE00040F2B846C4F20206B14218BF02270E688F
:102AF0003E423CD0AB6090F83530042B0B681DD1C2
:102B000023F016030B604B6923F080034B61036CC9
:102B10000BB9836C1BB10B6823F008030B603F21DA
:102B20009140A960012180F83510016D00294FF016
:102B3000000280F8342057D15AE000BF5A030A68D7
:102B40000CD4D2050ED40A6822F010020A600121CA
:102B500080F83510002180F8341003E0110301D40F
:102B6000416C00E0C16B11B1044688472046416DBD
:102B700000293DD0416DC90734D0042180F83510BB
:102B800001684FEA98220B6823F001030B60019B58
:102B90000133019393421AD80B68DB0717D0019BCE
:102BA00001330193934212D80B68DB070FD0019BCE
:102BB0000133019393420AD80B68DB0707D0019BCE
:102BC00001330193934202D80B68DB07DFD1096818
:102BD000C9074FF0030108BF012180F8351000211B
:102BE00080F83410C16C19B102B0BDE8F047084755
:102BF00002B0BDE8F08700BFD90301D4416CF2E711
:102C0000C16BF0E70B680423934033427FF4FFADC0
:102C10006DE600BF0B686AE62DE9F041044601F05D
:102C200033FEFCB140F26F4805462068C4F202084A
:102C300040451BDC9F21C4F20201884232DC57214F
:102C4000C4F20201884259DC1021C4F20201884218
:102C500000F083802821C4F20201884200F07D80C8
:102C6000402175E00120BDE8F08100BF45F22F4111
:102C7000C5F60201884229DC40F2B741C4F20201E4
:102C8000884247DC40F27041C4F20201884264D0BD
:102C900040F28841C4F2020188425ED040F2A04175
:102CA00056E000BF40F22741C4F20201884241DCF5
:102CB000A021C4F2020188424FD0B821C4F202011F
:102CC00088424AD040F2104142E000BF45F26B41D9
:102CD000C5F60201884200F3D18045F23041C5F6C5
:102CE0000201884200F0DD8045F24441C5F6020150
:102CF000884200F0D68045F25841CDE05821C4F218
:102D00000201884229D07021C4F20201884224D0F5
:102D100088211DE040F2B841C4F2020188421CD073
:102D200045F20841C5F60201884200F0BA8045F23A
:102D30001C41B1E040F22841C4F2020188420CD0AB
:102D400040F24041C4F20201884206D040F25841AC
:102D5000C4F20201884240F03981022184F8351022
:102D6000002184F83410016821F00101016000BFE6
:102D700020680168C9070DD001F086FD401B0628B8
:102D8000F6D320206065032084F835000120BDE8DB
:102D9000F08100BF48F23F0204F108060168CFF657
:102DA0001062114065694CCE1143A2691943E36971
:102DB0003143266A0D43616A2B43042943EA060323
:102DC00043EA020303D1D4E90B652E43334365681C
:102DD000A5F12906292E00F23182DFE816F02B003A
:102DE0002B002B002B002B002B002F022F022F0279
:102DF0002F022F022F022F022F022F022F022F024B
:102E00002F022F022F022F022F022B002B002B004C
:102E10002B002F022F022F022F022B002B002F023C
:102E20002F022F022F022F022F022B002B002B002C
:102E30002B0000BF43F4801303600429436923F08F
:102E4000070341EA030140F0DD80D4E90A53002B77
:102E500041EA050100F0D680B2F5005F00F0B880CD
:102E6000002A40F0C180022D00F0C180012D00F049
:102E7000B580002D00F0BB80C4E000BF45F26C417E
:102E8000C5F6020188420CD045F28041C5F6020128
:102E9000884206D045F29441C5F60201884240F0CE
:102EA000958004F1080E022184F83510002184F881
:102EB00034100168A3699EE80450A2F18005E76917
:102EC000B5FA85F566696D09402A4FEA853543EA0A
:102ED00007026FF3101142EA060208BF102541EA0B
:102EE000DC0142EA0E02236A294341EAD20141EAA7
:102EF000131140F80819C0B2CD2148433C2101EA22
:102F00009020E0652046FEF7B7F9E16D012201F05F
:102F10001F0102FA01F141602068404500F3818001
:102F20009F21C4F20201884214DC5721C4F202013D
:102F3000884227DC1021C4F20201884200F0C780D9
:102F40002821C4F20201884200F0C1804021C4F26D
:102F50000201B9E040F22741C4F20201884221DCBB
:102F6000A021C4F20201884200F0B180B821C4F26D
:102F70000201884200F0AB8040F21041C4F202012D
:102F8000A2E000BF5821C4F20201884200F09F80F5
:102F90007021C4F20201884200F099808821C4F2B5
:102FA000020191E040F22841C4F20201884200F09F
:102FB0008E8040F24041C4F20201884200F08780D6
:102FC00040F25841C4F202017EE000BF4020D9E641
:102FD000032D17D8DFE805F00E0B0E02A3F1C07227
:102FE000B2FA82F2520904E0032D03D30AD1C3F3EB
:102FF00000623AB140206065012084F83500BDE8E8
:10300000F08100BF41612046FEF736F9E16D3F22B5
:1030100001F01F0102FA01F18160206840457FF74D
:103020007FAF45F22F41C5F60201884216DC40F21F
:10303000B741C4F20201884226DC40F27041C4F27A
:103040000201884243D040F28841C4F20201884222
:103050003DD040F2A041C4F2020135E045F26B419F
:10306000C5F6020188421FDC45F23041C5F6020177
:1030700088422CD045F24441C5F60201884226D050
:1030800045F258411EE000BF40F2B841C4F20201CF
:1030900088421CD045F20841C5F60201884216D08C
:1030A00045F21C410EE000BF45F26C41C5F602013D
:1030B00088420CD045F29441C5F60201884206D000
:1030C00045F28041C5F60201884240F0E18045F2B8
:1030D000574C45F6FC0EC5F6020CC5F6020E6045CF
:1030E0000EDC45F22F41C5F60201884218DC45F29C
:1030F0000841C5F60201884228D045F21C4121E072
:1031000045F27F41C5F60201884213DC45F2584181
:10311000C5F60201884219D045F26C4112E000BFA9
:1031200045F23041C5F6020188420FD045F24441D4
:1031300008E000BF45F29441C5F60201884205D07F
:1031400045F28041C5F60201884247D100F0FC01FA
:103150004CF6CD420839CCF6CC42A1FB0212AEF1BE
:10316000FC05AEF17C061309A26803F01F01802A5A
:103170004FF0010205EB8305256602FA01F266664F
:10318000A26605D100206060286072601EE000BF6A
:103190006368D9B25F1E072F2960726016D84E1E71
:1031A000082E19D260450EF1440237DC45F22F415A
:1031B000C5F60201884249DC45F20841C5F6020124
:1031C000884259D045F21C4152E000BF00206067A0
:1031D000C4E91B005CE000BFE06E54E000F0F801C1
:1031E0004AF6AB221039CAF6AA22A1FB021240F21B
:1031F0000F43C4F2020308251109984203F1AA06FD
:103200000B4688BF05EB121340F60005B042C4F22E
:10321000020505F1800628BF0B46A5E745F27F4170
:10322000C5F6020188421BDC45F25841C5F6020191
:10323000884221D045F26C411AE000BF25F0030717
:10324000742F08BF43F48013F6E500BF45F2304108
:10325000C5F6020188420FD045F2444108E000BFA4
:1032600045F28041C5F60201884205D045F29441FD
:10327000C5F60201884213D10EEB83000121E066FE
:10328000B1402267616700210160D4E91C014160FF
:1032900000206065012184F83510BDE8F08100BF91
:1032A00040F60000C4F2020000F1FC0E00F5A0722E
:1032B000E2E700000000000030B110B590F83440A3
:1032C000012C03D1022010BD01207047012480F899
:1032D000344090F83540012C2CD1022480F8354040
:1032E00000244465D0F800C0DCF8004024F001045C
:1032F000CCF800400446FEF753F840F20F4C20682B
:10330000C4F2020C40F26F416045C4F2020119DCC4
:103310006F23C4F20203984226DC3F23C4F2020367
:1033200098423DDC1023C4F2020398425FD0282368
:1033300058E000BF4FF400614165002180F834106F
:10334000012010BD88421BDC40F23F43C4F202035F
:1033500098422DDC40F21043C4F20203984246D05A
:1033600040F228433EE000BF9F23C4F2020398428C
:1033700028DC7023C4F20203984238D0882331E05D
:1033800040F29F43C4F20203984223DC40F27043B0
:10339000C4F2020398422AD040F2884322E000BFE0
:1033A0004023C4F20203984221D058231AE000BF00
:1033B00040F24043C4F20203984218D040F258430E
:1033C00010E000BFA023C4F2020398420FD0B8233C
:1033D00008E000BF40F2B843C4F20203984206D0AE
:1033E00040F2A043C4F20203984240F02F810368E8
:1033F0000B2262F344030360226C1AB108230268B3
:103400001A430260884219DC9F22C4F202029042F1
:1034100032DC5722C4F20202904259DC1022C4F27C
:103420000202904200F096802822C4F202029042EA
:1034300000F090804022C4F2020289E045F22F425F
:10344000C5F6020290422DDC40F2B742C4F20202FD
:1034500090424BDC40F27042C4F20202904279D0BA
:1034600040F28842C4F20202904273D040F2A0427D
:10347000C4F202026CE000BF40F22742C4F2020232
:10348000904243DCA022C4F20202904262D0B822F1
:10349000C4F2020290425DD040F21042C4F2020235
:1034A00056E000BF45F26B42C5F6020290423FDC97
:1034B00045F23042C5F6020290424BD045F24442FA
:1034C000C5F60202904245D045F258423EE000BFA8
:1034D0005822C4F2020290423CD07022C4F202028E
:1034E000904237D08822C4F2020231E040F2B84262
:1034F000C4F2020290422DD045F20842C5F6020203
:10350000904227D045F21C4220E000BF40F2284202
:10351000C4F2020290421DD040F24042C4F20202C4
:10352000904217D040F25842C4F2020210E000BFAD
:1035300045F26C42C5F6020290420BD045F294422D
:10354000C5F60202904205D045F28042C5F602025D
:10355000904274D1236E1A68D20303D51A6842F4DC
:1035600080721A60E36E1BB11A6842F480721A60AE
:10357000604511DC6F21C4F2020188421EDC3F214C
:10358000C4F20201884235DC1021C4F202018842F3
:1035900055D0282150E000BF88421BDC40F23F415B
:1035A000C4F2020188422DDC40F21041C4F2020153
:1035B000884244D040F228413EE000BF9F21C4F23F
:1035C0000201884228DC7021C4F20201884236D010
:1035D000882131E040F29F41C4F20201884223DC9D
:1035E00040F27041C4F20201884228D040F2884182
:1035F00022E000BF4021C4F2020188421FD05821BE
:103600001AE000BF40F24041C4F20201884216D0E5
:1036100040F2584110E000BFA021C4F202018842EC
:103620000DD0B82108E000BF40F2B841C4F2020159
:10363000884204D040F2A041C4F2020188420168ED
:1036400041F001010160002010BD00BF02680523A8
:1036500063F343020260226C002A3FF4D3AE0423DA
:10366000CDE6000000000000B0B5044601F00CF902
:1036700040F2A0010546C2F20041621C097818BF61
:103680000C4400BF01F000F9401BA042FAD3B0BDCA
:1036900090F89830013B012B0ED80068836D0B42E7
:1036A00012D0836D0B408B4232D1C36D43F00203C5
:1036B000C3658B050ED412E000F19C0101200222AB
:1036C0000B681A430A607047C36D43F00103C3657A
:1036D0008B0504D5D0F8E0301343C0F8E0304B053B
:1036E00004D5D0F8E4301A43C0F8E4204FF6FF7256
:1036F000436DC3F6CF720A401A4342658A0F4AF6F9
:1037000014010020C4F200010B681A430A607047DC
:103710000323C3658B05DDD4E1E700000000000052
:1037200090F89830022B1BD12DE9F0430668D6F8AB
:10373000C03013F07C5F1BD0D6F8C4309B0221D47C
:10374000D6F8C4300C69C3F3044CD1E90035002D20
:103750008D6821D023432B4343F0804E20E000BFEF
:10376000D0F89C1041F00801C0F89C10012070476F
:10377000D0F89C1041F02001C0F89C100120BDE859
:10378000F08300BFD0F89C1041F40071C0F89C1089
:103790000120BDE8F08300BF44EA834343EA050EFD
:1037A000836ED0F88450D1E907970CFB03F48B6942
:1037B00049EA0767D1F81480D1F80C901F4305EB54
:1037C000840347EA080745F824E047EA09475F60B1
:1037D000CF6887B146F25405083303320024C0F69F
:1037E000010500BF171957F8037C1F51CF68043437
:1037F000EF5DBC42F6D3012101FA0CF1C6F8D010FE
:10380000C0F894100020BDE8F08300000000000024
:10381000704700000000000090F89830012B0FD195
:10382000012900684FEA026212D0D9B9D0F8F0102D
:1038300021F07C511143C0F8F0100020704700BF08
:10384000D0F89C1041F00401C0F89C100120704792
:10385000D0F8A01021F0FE411143C0F8A0100020C4
:10386000704700BFD0F8B01021F0FE411143C0F8FE
:10387000B01000207047000090F89820013A012A0B
:103880000CD880B50A68002ACA680FD00B69072ACD
:1038900043EA427E18D18B691BE000BFD0F89C1030
:1038A00041F00201C0F89C1001207047072A19D18D
:1038B0000A69D1E906C3120442EA032242EA0C0271
:1038C00042F0605218E000BFD1F808C04B6943EAEB
:1038D0008C73006F496800EBC10240F831E053601F
:1038E000002080BD8B68D1E904CE9B0743EAC26209
:1038F00042EA0C4242EA0E024968C06E40F82120BA
:10390000002080BD0000000090F898C0BCF1010FBD
:103910000ED19200006842EA0111DDF800C041EAD0
:10392000430141EA0C01C0F880100020704700BF3D
:10393000D0F89C1041F00401C0F89C1001207047A1
:10394000704700000000000010B58CB042F6E8227D
:1039500001F00071C2F20042904205D121B142F65D
:10396000E824C2F2004416E042F68832C2F2004275
:10397000904205D121B142F68834C2F200440AE0F7
:1039800042F62842C2F2004290420FD171B142F693
:103990002844C2F2004401A9204600F009F8069824
:1039A00020B12068816921F0010181610CB010BD56
:1039B0000068426C02F007000860C2F30220486011
:1039C000C2F3803302F018008860C2F34010C86070
:1039D000C2F380100861C2F3C0104861C2F3C02076
:1039E0008861C2F30030C861C2F34030C1E9080306
:1039F000C2F3064200208A62704700000000000007
:103A00002DE9F04390F89870022F11D1402919D177
:103A10000668D6F8A07017F4FE0F2FD0D6F8A47061
:103A20007F0635D0D6F8A470FF013BD400273CE0D8
:103A3000D0F89C1041F00801C0F89C100120BDE8AE
:103A4000F08300BF41290FD10668D6F8B07017F493
:103A5000FE0F13D0D6F8B4707F0619D0D6F8B47024
:103A6000FF012BD400272CE0076DB94206D200F1EC
:103A70007C05466D4FF0000C0F462BE0D0F89C10F3
:103A800041F02001C0F89C100120BDE8F08300BF88
:103A9000D0F89C1041F48071C0F89C100120BDE862
:103AA000F08300BFD6F8A070FF0FD6F8A46000F135
:103AB0007405C6F305263E44476C0AE0D6F8B0709C
:103AC000FF0FD6F8B46000F17805C6F305263E4432
:103AD000C76CB44607FB06F42D6805EB840E55F859
:103AE000247017F08047576055F8247027F060461F
:103AF00008BFC7F38A46166055F8247007F00057D0
:103B0000976055F8244004F000441461BEF8044066
:103B1000D461BEF8064014F00F04D460DEF804400F
:103B200004F480145461DEF8044004F40014946139
:103B30009EF8074004F07F041462DEF804404FEA68
:103B4000D474546228D046F254080024C0F6010808
:103B50000EEB0406651C377A1F55D76818F80770F6
:103B6000BD4219D21F19757A7D70D56818F8059075
:103B7000A51C4D453FBFB57ABD70D56818F80590B6
:103B80003CBFE51C4D4507D2F57A0434FD70D5687D
:103B900018F80550AC42DBD3402905D10068C0F8C5
:103BA000A8C00020BDE8F083412905D10068C0F815
:103BB000B8C00020BDE8F0831F2909D800680122A1
:103BC00002FA01F1C0F898100020BDE8F08300BFB0
:103BD000006801F01F01012202FA01F1C0F89C10F7
:103BE0000020BDE8F08300007047000000000000E6
:103BF0002DE9F04F87B004464AF61000C4F20000E9
:103C000001684AF61400C4F20000026820680A4005
:103C1000D0F850B0D0F85490056D466D036D029306
:103C2000436D0193036D0693436D0593036D0493F8
:103C3000436D0393D0F854A0D0F850805FEACA5384
:103C400011D518F480710ED04FF4807101654AF6D9
:103C500010010020C4F20001174608602046FFF75B
:103C6000C3FF3A4620685FEA4A510BEA090B4FEA64
:103C7000827740F14B814AF6100918F48061C4F252
:103C8000000910D0D0F8DC100092D0F8E4201140E8
:103C90004FF4806202650020C9F80000204600F061
:103CA00007FD009A206805EA06050BF4704657B137
:103CB0000021016502F00300C9F8000020463946E2
:103CC000FFF7A6FD2068DDE9012101EA020705F002
:103CD0000F0546B106650020C9F8000020463146B0
:103CE00000F0EEFC206807F0F00645B10565002005
:103CF000C9F800002046294600F0FAFB206846B1CA
:103D000006650020C9F800002046314600F098FC06
:103D100020685FEA0A510CD518F4006109D04FF40D
:103D2000006101650020C9F80000204600F0CCFCCD
:103D300020685FEA8A5111D518F400710ED0D0F8CE
:103D4000D810D0F8E02011404FF400720265002036
:103D5000C9F80000204600F0AFFC20685FEA0A3195
:103D60000CD518F4002109D04FF400210165002082
:103D7000C9F80000204600F0B7FB20685FEACA31AE
:103D80000CD518F4803109D04FF480310165002042
:103D9000C9F80000204600F087FC20685FEA4A313D
:103DA000DDE9032101EA02050CD518F4802109D0D0
:103DB0004FF4802101650020C9F80000204600F082
:103DC0006FFC20685FEA8A31DDE9052102EA010221
:103DD00005F060710ED518F400330BD04FF40033AA
:103DE00003650023C9F80030D4F89C3043F0800309
:103DF000C4F89C3002F0715539B101650020C9F852
:103E000000002046FFF7A0FD206845B105650021B0
:103E1000C9F80010D4F89C102943C4F89C10A9F5E7
:103E2000016188420AD0D4F89C0000286AD020465C
:103E300007B0BDE8F04FFFF783BD00BF6068816841
:103E40008907F0D0016A426A036A476A114003EAAF
:103E5000070202F03005D0F82080D0F82490D0F886
:103E600020B0466A026A069211F00F01426A05927A
:103E7000D0F824A0026A049203D00162204600F028
:103E800003FC08EA09072DB160682946056220464F
:103E900000F002FC5FEA4A6006EA0B0607F4C07510
:103EA0000ED5049810F040000AD060684023C16B22
:103EB000C26B090C02F03F020362204600F0E8FBEF
:103EC000DDE9051000EA010706F4FC462DB1606843
:103ED00029460562204600F0D3FB07F4F02036B1F6
:103EE00061680E62D4F89C103143C4F89C1000281D
:103EF00099D061680862D4F89C100843C4F89C000B
:103F000091E700BF07B0BDE8F08F00BF4AF6100987
:103F1000C4F20009002F05EA06050BF470467FF491
:103F2000C7AED0E600000000F0B12DE9F04F83B03D
:103F30004AF200080446C4F200080068404533D045
:103F400094F89810B9B3816921F01001816100F0F3
:103F50009BFC054620688169090707D500F094FCA1
:103F6000401B0B28F6D312E001207047816941F015
:103F70000101816100F088FC054600BF206881696D
:103F8000C90721D100F080FC401B0B28F6D301208B
:103F9000D4F89C100843C4F89C00032084F89800CF
:103FA000012003B0BDE8F08F08F58071616094F8DE
:103FB00098100029C7D1002084F89900204600F00D
:103FC000B3F92068BFE700BF816941F00201816158
:103FD000217C826922F04002012918BF40328261AF
:103FE000617C826922F48042012908BF02F5804287
:103FF0008261A17C826922F48052012918BF02F5F6
:1040000080528261816921F44073D4E902120B432A
:104010008361836923F0A4038361036923F01003A0
:1040200003619AB1012A0DD0022A09D08369032ABB
:1040300043F080038361036943F01002026105D1FC
:10404000202200E0042283691A438261D4E90572C8
:10405000E369561E6FF0FF02256A02EB0323B1F5F8
:10406000407F43EA4663A5F1010646EA030640F2B3
:104070000003CFF6FF7303EB074746EA0701C16170
:1040800010D1D4E90B65D4E90917013F02EB0622F0
:104090006FF00F063A4306EB05173A4303EB014175
:1040A0001143C160236E2BB1616ED0F8C020114363
:1040B000C0F8C010E16DCDE90113D94245F6C851F1
:1040C000C0F6010109D0D0F8C820A36E22F0070283
:1040D00051F823301A43C0F8C820D4F840C0BCF1CE
:1040E000000F09D0D0F8BC20636C22F0070251F811
:1040F00023301A43C0F8BC20D4F848B0BBF1000FFD
:104100000AD0D0F8BC20E36C22F0700251F82330C2
:1041100042EA0312C0F8BC20D4F850A0BAF1000F54
:104120000AD0D0F8BC20636D22F4E06251F823106D
:1041300042EA0121C0F8BC10404504D161688A6898
:1041400022F003028A600021C4F89410C4F89C1085
:10415000012184F8981004F13409D0F884104FF646
:10416000FC729143656C99E80C02009541EA82016A
:10417000C0F88410D0F8841021F47F0141EA034193
:10418000C0F884109918D0F888306FF38F0343EA91
:104190008103C0F88830D0F8883023F4FE0343EA66
:1041A0000943C0F8883001EB4903D0F8A0606FF3F1
:1041B0008F0646EA8306C0F8A060D0F8A06026F417
:1041C000FE0646EA0C46C0F8A06005FB0C36D0F8A7
:1041D000B0306FF38F0343EA8603C0F8B030D0F8F5
:1041E000B03023F4FE0343EA0B43C0F8B030E36C75
:1041F000D0F8AC506FF38F0503FB0B6645EA8605DC
:10420000C0F8AC50D4F8548008FB0A65D0F8F060D0
:104210006FF38F0646EA8506C0F8F060D0F8F0E04C
:10422000A66D2EF47C1747EA0647C0F8F070F70039
:1042300007EB8507D0F8C0506FF38F052F43C0F808
:10424000C070D0F8C070009DDDF804E027F47C1742
:1042500005FB0CFC4AF2000547EA0E47C0F8C070A7
:10426000C4F2000503FB0BC305F54067D0F8C0504E
:1042700007EB820207EB810125F07C57029D47EA9C
:104280000567C0F8C07001EBC90008FB0A37216759
:10429000A16E00EB8C0C606700EB8303E266C4E95F
:1042A0001EC30EFB01F300EB87006943C4F88000D6
:1042B00000EBC600C4F8840000EB8300C4F888005B
:1042C00000EB81004DF2FC31C4F20001C4F8900013
:1042D000884201D920205BE682421FD2114600208D
:1042E00041F8040BD4F890309942BFF45AAE5060B4
:1042F00002F10801D4F8903099423FBF906002F17A
:104300000C01D4F890309942BFF44BAED06010321B
:10431000D4F890108A42E1D343E600BF002003B0F6
:10432000BDE8F08F00000000B0B5B6B0044602A8AA
:10433000B8210025CDE93455CDE932553195FCF74A
:10434000DAF94DF200412068C4F20001884279D0C8
:104350004AF20041C4F20001884239D04AF2000119
:10436000C4F20001884240F0BD80002003904FF469
:10437000004002904FF080501D9002A801F0CCFD4B
:1043800008B1FDF779FA40F2186144F2E040C2F258
:104390000041C5F602000A68002A02F101020A6023
:1043A00008D1C16841F48071C160C16801F48071B5
:1043B000019101990168152441F00801016000682C
:1043C000132500F0080001900198092103226BE0F9
:1043D000002003904FF4004002904FF080501D9059
:1043E00002A801F099FD08B1FDF746FA40F2186104
:1043F00044F2E040C2F20041C5F602000A68002A19
:1044000002F101020A6008D1C16841F48071C16003
:10441000C16801F48071019101990168162441F08D
:10442000020101600068142500F00200019040F6CE
:1044300000400199C5F602000921A0F50060602244
:1044400036E000BF4FF4004002904FF080501D90C6
:1044500002A8039501F060FD08B1FDF70DFA40F2E6
:10446000186144F2E040C2F20041C5F602000A6859
:10447000002A02F101020A6008D1C16841F480718A
:10448000C160C16801F48071019101990168A024A3
:1044900041F00801016000689F2500F008000190CC
:1044A00005214FF44052019840F60040C5F6020045
:1044B000359131A93192022232920022CDE9332284
:1044C00000F006F905210022284600F0F9FA2846F6
:1044D00000F0E2FA05210022204600F0F1FA204621
:1044E00000F0DAFA36B0B0BD7047000000000000FE
:1044F00010B58EB042F6E821C2F2004188420DD0DC
:1045000042F68831C2F20041884219D042F6284171
:10451000C2F2004188422BD00EB010BD42F6E82016
:1045200004AAC2F2004002AB4021FFF769FAB8B317
:1045300041F6BC40C2F2004041890131418148E06E
:1045400042F6883004AAC2F2004002AB4021FFF7D5
:1045500057FA002848D041F6BC40C2F20040818999
:104560000131818142F68830C2F2004035E000BF5F
:1045700042F6284004AAC2F2004002AB40210446A1
:10458000FFF73EFA002841D041F6BC40C2F200409D
:10459000C1890131C18142F62840C2F200401CE0CD
:1045A0000498A0F20120022813D845F62C7CBDF80F
:1045B0000820C0F6010CBDF80A30BDF80C409DF98A
:1045C0000E105CF820000091D1BADABAE3BAFCF719
:1045D00003FE42F6E820C2F2004001210022FFF76C
:1045E00057F80EB010BD00BF049840F20521884274
:1045F0000ED01128B6D141F60C7002A9C2F20040CB
:1046000000F574700FF0D0F8ACE700BF2046E4E787
:10461000BDF80810BDF80C30BDF80A2041F60C7446
:104620009DF90E00C2F20044C9BA0090D2BA04F556
:104630004370DBBAFCF7D0FD94E7000000000000F7
:10464000704700000000000090F8981001290DD17B
:10465000022180F8981001688A6922F001028A61BB
:104660000021C0F89C100020704700BFD0F89C10BB
:1046700041F00401C0F89C100120704700000000C8
:1046800070470000000000007047000000000000BC
:1046900070470000000000007047000000000000AC
:1046A000704700000000000070470000000000009C
:1046B000704700000000000070470000000000008C
:1046C000704700000000000070470000000000007C
:1046D0002DE9F04F83B00F68002F00F0C98000F182
:1046E000264642F2004506F1FF76C5F602050A228B
:1046F000A8424FEAB62540F2040C08BF092200F197
:1047000020030093082DC5F6000C38BF4FEAB622EF
:10471000002400264FF0000801920AE008F1010889
:104720000F6837FA08F206F1020604F1040400F0FB
:104730009F80012202FA08FE17EA0E09EED0D1F896
:1047400004B003220BF00307B2407D1E6FEA020A99
:10475000012D11D88268CD6802EA0A02B5402A43C9
:104760008260CBF30015426822EA0E0205FA08F5D2
:104770002A43426004E000BF032F01D103271FE05A
:10478000C2688D6802EA0A02B540022F42EA0502B9
:10479000C26015D16FF0030204F01C0502EA580B49
:1047A000009A0F2352F80BE0AB400F692EEA030387
:1047B000AF403B4342F80B30D1F804B00BF0030795
:1047C000026807FA06F302EA0A021BF4403F42EAD3
:1047D00003020260A2D044F2F44340F2084EC5F650
:1047E0000203C5F6000E0F251A6842F002021A6095
:1047F0001A6802F00202029228F00302029B04F0FF
:104800000C0352F80E709D40AF43019D05FA03F36F
:104810003B4342F80E304FF0B04EDEF800204B68BC
:1048200042EA0907DD0258BF22EA09079D02CEF8D5
:104830000070DCF8002042EA090758BF22EA0907A5
:104840009D03CCF80070DCF8802042EA090758BFCD
:1048500022EA0907DB03CCF88070DCF87C2042EA0E
:10486000090758BF22EA0907CCF87C7056E700BF59
:1048700003B0BDE8F08F0000002A08BF0904816181
:1048800070470000000000004CF25860C2F2014086
:10489000006870470000000040F2A0004CF2586130
:1048A000C2F20040C2F2014100780A681044086078
:1048B000704700000000000080B5032000F030F9D0
:1048C00002F04AFA44F2184145F64473C5F6020173
:1048D000C0F601030A68C2F303229A5C096801F07A
:1048E0000F0102F01F02595CD04040F2AC02C2F24C
:1048F000004201F01F0120FA01F1116040F2A8010D
:10490000C2F2004108600F2000F00AF800281CBF26
:10491000012080BD00F0A8F8002080BD000000004C
:104920000F2845D8B0B58AB004461C200022214685
:10493000002500F0C5F81C2000F0AEF840F2A400FD
:10494000C2F20040046044F2E840C5F6020001688B
:1049500041F001010160006801A900F0010002902E
:10496000029802A802F044F9079C002C18BF012409
:1049700002F092F94DF68361A040C4F21B314FF072
:10498000FF32A0FB010143F28020C2F200404FF051
:104990008043036002EB9141C0E9011540F2E73129
:1049A000C0E9031503F098FA20B101200AB0B0BDA8
:1049B0000120704743F28020C2F2004003F0FCFA6D
:1049C0000AB0B0BD0000000010B54EF6A05E4378FE
:1049D000CEF2000E90F800C04EF8083CDEF8003031
:1049E00023F00103CEF8003043684EF8043C037B0B
:1049F000C27A817A447B120642EA0372837B42EADE
:104A0000C141C27B41EA8441447A41EA4341007A90
:104A100041EA024141EA042141EA400040EA0C0037
:104A2000CEF8000010BD00004EF62450CEF200007B
:104A3000BFF35F8F016821F48031016000210167BD
:104A400070470000000000004EF6245140F00100C5
:104A5000CEF200010867086840F480300860BFF3B8
:104A60004F8FBFF36F8F704781B044F2F440002244
:104A7000C5F60200016841F00201016000680F21E3
:104A800000F0020000906FF00100009B01B000F008
:104A900017B8000000000000002848BF704700F071
:104AA0001F01012202FA01F14EF20012C0F34A1076
:104AB000CEF2000242F82010704700000000000013
:104AC00070B54EF60C5C4FF0FF36CEF2000C00F1E4
:104AD000604505F56445DCF80030C3F3022E8EF026
:104AE0000703042B28BF0423BEF1030406FA03F3D3
:104AF00021EA030100F00F0338BF0024043B002823
:104B0000634406FA04F048BF03F10C05A14022EA11
:104B1000000008430001287070BD00000000000084
:104B20004EF60C514FF6FF03CEF200010A681A4010
:104B300060F30A2242F0806040F0FD700860704728
:104B40000DF0AEFF0000000001680122C0F8D8247B
:104B5000002280F8CC24886940F000608861486DAC
:104B600040F08052002042F003024A657047000086
:104B7000704700000000000002680020516270478A
:104B80002DE9F043D0F80080D8F8243091B1D8F85E
:104B90002870B1F1010C03EB17414FD05FFA8CF391
:104BA0000CF0030E042B08F582730BD200270024AF
:104BB0002BE000BF002043EA0241C8F82810BDE8FE
:104BC000F08300BF0CF0FC0908F1F406002400BFDC
:104BD00056F8107F44F00100C0B244F00305EDB276
:104BE00001EB174144F0020753F82000FFB20434F0
:104BF00001EB104053F8271053F82550E7B200EBB3
:104C000011404F4500EB1541E2D1BEF1000F15D028
:104C100053F82700BEF1010F01EB10410ED0601CCC
:104C2000BEF1020FC0B253F8200001EB104105D0D5
:104C3000A01CC0B253F8200001EB104108EB8C001F
:104C400041EA0241C0F804110020BDE8F0830000F1
:104C5000D0F8E0040BF0C0BC01EBC10200EB820213
:104C6000D0F8E004126A0BF023BC00000000000042
:104C700001EBC10200EB8202D0F8E004D2F860221E
:104C80000BF072BC00000000D0F8E0040BF0A8BCF0
:104C900010B54FFA81FC0A4601F00F0E4FF4157162
:104CA000BCF1000F4FEAD21248BF14210EEBCE0C1C
:104CB00090F89444431803EB8C01012C03F82CE08A
:104CC0004A7001D1022010BD012280F894240268AC
:104CD000044610460CF08CFA002084F8940410BDB1
:104CE000B0B5027901F00F03934201D90120B0BDA4
:104CF0004AB24FF41574002A03EBC30E48BF1424C4
:104D0000C909021990F8944402EB8E0C012C4FF063
:104D100000048CF801108CF8024002F82E3001D10A
:104D20000220B0BD012180F89414016805460846B0
:104D300061460CF04DFD204685F89444B0BD00005E
:104D400001F00F0101EBC10100EB8100D0F8680216
:104D5000704700000000000010B54FFA81FE01F01E
:104D60000F0C6FF3DF22BEF1000F0CEBCC0123D44C
:104D700000EB810E00218EF855120EF515718EF89C
:104D800054C2CEF85C228EF85832022B01D1002298
:104D90004A7190F89424012A02D1022010BD00BF6C
:104DA000012280F894240268044610460CF0B4F8FE
:104DB000002084F8940410BD00EB81014FF0010E37
:104DC00001F814CF81F801E08A600B71A1F81AC0D4
:104DD000022BDCD0DDE7000080B501F00F0C0CEBFE
:104DE000CC0100EB810E0021CEE998238379CEF827
:104DF00068128EF855120EF51571012B8EF854C2FB
:104E000008BFCA6100681A460CF02EFD002080BD64
:104E1000B0B5027901F00F0494424FF001022BD893
:104E20004BB24FEAD11C002B4FF4157548BF2146F9
:104E300048BF142590F894E401EBC1030544BEF18A
:104E4000010F05EB830105F8234081F801C08A704A
:104E500002D10220B0BD00BF80F89424054600684E
:104E60000CF0E2FC2CB9A979286805F29C420CF000
:104E70007FFC002285F894241046B0BD000000009D
:104E800080B501F00F0C90F806E00CEBCC01BEF100
:104E9000010F00EB810101F814CF4FF0000C0B6102
:104EA0004FF00103CA60C1F814C04B7008BFCA615B
:104EB000006872460CF0D8FC002080BD00000000A5
:104EC0002DE9F04F87B00568824628460CF0F0FEC9
:104ED00010B107B0BDE8F08FDAF800000CF018FF51
:104EE0000028F6D0D5F80808C0F30D20CAF8D4047D
:104EF000DAF800000CF00CFF8007DAF8000003D5A8
:104F0000416901F00201416105F5006105910CF074
:104F1000FFFEC006DAF80000069535D5816921F05C
:104F2000100181612C6A04F00F0000EBC001C4F392
:104F300043400AEB8101062801F5157512D00228BD
:104F40001BD147F6F07014EA000616D03409E96860
:104F5000069822460CF0E0FEE86800EB1610E860C8
:104F600008E000BF0AF29C41082206980CF0D4FE2B
:104F7000C4F30A14686920446861DAF800008169A2
:104F800041F010018161069D0CF0C2FE000340F16A
:104F9000F980DAF800000CF097FE002800F0F280AB
:104FA00006464FF4306800244FF0000B0AF29C4094
:104FB000049008E00BF1010B760808F1200804F1D9
:104FC000240400F0DF80F007F4D05FFA8BF9DAF800
:104FD000000049460CF094FE0746C00761D005EB7F
:104FE000080001218160DAF8000008EB0001036C81
:104FF0008A689AF80650012D26D1150734D49506F3
:1050000000F1B88043F20B05C4F65475AB42069D1F
:1050100002D312F4004231D10AEB0402D2F8743206
:1050200009696FF3DF41A3EB0101C2F86812A4BB69
:10503000D2F86432002B00F0A380D2F8600208445A
:10504000C2F8600229E000BF43F20B05C4F65475B4
:10505000FF35AB4218D11004069D0FD490061CD525
:105060002020886019E000BF43F20B00069DC4F6C3
:105070005470834215D312F4004012D04FF4004014
:10508000886038070FD43DE0069D34B9DAF8641221
:1050900019B90021049A0CF06BFB50464946FFF702
:1050A000E7FD38072ED505EB08000821816043F2A3
:1050B0000B01DAF80000C4F65471056C40448D42CF
:1050C00081680BD311F4004108D04FF40041816096
:1050D000504600F06DFD069D0AE000BF504600F00E
:1050E00067FD43F20B00C4F654708542069D09D358
:1050F0009AF80600012805D1DAF800000121049A87
:105100000CF036FBF80607D4B8070BD4B80624D445
:10511000B8047FF54FAF27E005EB08001021816050
:10512000B807F3D56869000604D50599486840F4C6
:10513000806048600AEB040090F85712012906D1FC
:10514000002180F857125046494600F07DFB05EBE0
:10515000080002218160B806DAD505EB080020219D
:105160008160B8047FF526AF05EB08004FF40051CD
:1051700081601FE720208860069D380793D4C1E72F
:10518000012187E7DAF800000CF0C2FD400340F18E
:10519000E180DAF800000CF08FFD002800F0DA80E2
:1051A0000646069800F5106900250AF114000490DF
:1051B0000AF29C400290CDF80C9004E0760805F1CC
:1051C000010500F0C780F007F8D0EFB2DAF8000070
:1051D00039460CF081FD0446C0070BD1200735D4B9
:1051E000E00639D460063DD4A00741D42006E5D5B9
:1051F00058E000BF059B05F00F004FF0010C09EBD4
:1052000045120CFA00F0596B21EA00005863C2F80D
:1052100008C09AF80600012812D105EBC5000499D0
:1052200001EB8000D0E902121144C16045B9006968
:1052300030B9DAF800000121029A0CF099FA00BFA7
:1052400050463946FFF708FD2007C9D509EB451040
:1052500008218160E006C5D509EB45101021816069
:105260006006C1D509EB451040218160A007BDD57E
:10527000069829460CF0ACFC05EBC500049901EB3F
:10528000800010F8031F012905D10021017050464C
:10529000394600F0D5FA09EB45100221816020065D
:1052A0007FF58CAF05EBC500049901EB8008D8E9C8
:1052B00004108142FFF482AFDAF800400A1AD8F8ED
:1052C00008309A4238BF134604EB451203F1030C31
:1052D000D2F818399BB2B3EB9C0F2BD302F51069AF
:1052E000D8F81010814223D9081A9AF80620D8E974
:1052F00002B1584538BF8346009220461FFA8BF30F
:105300003A460CF0B5FFD8F80C00D8F81410584401
:10531000C8F80C0001EB0B00C8F814000BF10301F6
:10532000D9F8182092B2B2EB910FD9D2D8F8101058
:10533000DDF80C9081423FF641AF05F00F000121EE
:1053400001FA00F0D4F8341821EA0000C4F8340857
:1053500034E700BFDAF800000CF0DAFC00280DD4C6
:10536000DAF800000CF0D4FC000526D4DAF80000CE
:105370000CF0CEFC000131D43CE000BF0599486838
:1053800020F0010048609AF8CC04012808D10020E0
:105390008AF8CC0400215046FFF7EAFB03E000BF87
:1053A000504600F0E9FBDAF80000416901F00041E5
:1053B00041610CF0ADFC0005D8D505988068C007A8
:1053C00002D0504600F01CFCDAF80000416901F4FC
:1053D000006141610CF09CFC00010BD5DAF8000083
:1053E000416901F0006141619AF8CC1491B15046D5
:1053F00000F006FCDAF800000CF08AFCC0041AD4B5
:10540000DAF800000CF084FC8004DAF8000000F107
:105410000D8126E101218AF8CC14406DC0F3830090
:10542000CAF8D0045046FFF7A3FBDAF800000CF0EE
:105430006FFCC004E4D50599486820F0010048607D
:10544000DAF8000010210CF0C3FB9AF80400010602
:1054500000F0BB80C1B200F00300042902D2002199
:1054600068E000BF6FF06002002302EA41124FF6CD
:105470007F370021069C00BFE61880339A4201F175
:105480000401C6F80879D6F8005925F40015C6F8C5
:105490000059C6F8087BD6F8005B25F40015C6F85D
:1054A000005BD6F8005B45F00065C6F8005BC6F807
:1054B0002879D6F8205925F40015C6F82059C6F8E1
:1054C000287BD6F8205B25F40015C6F8205BD6F8BB
:1054D000205B45F00065C6F8205BC6F84879D6F831
:1054E000405925F40015C6F84059C6F8487BD6F84F
:1054F000405B25F40015C6F8405BD6F8405B45F0EC
:105500000065C6F8405BC6F86879D6F8605925F49E
:105510000015C6F86059C6F8687BD6F8605B25F4BC
:105520000015C6F8605BD6F8605B45F00065C6F80C
:10553000605BA1D1002848D0069A4D0102F51063A6
:1055400002F5306203EB41164FF67F3702EB411450
:105550000128B7605E5926F400165E51A7605659BF
:1055600026F400165651565946F0006656512CD076
:105570004E1C02284FEA461403EB461502EB461672
:10558000AF601D5925F400151D51B760175927F458
:1055900000171751175947F00060105115D0881C9B
:1055A0004FF67F36470103EB401102EB40108E604F
:1055B000D95921F40011D9518660D05920F4001036
:1055C000D051D05940F00060D051059F8421442231
:1055D000F86940F00110F8619AF80F0000284FF0C8
:1055E0000B0008BF142104BF42F22B0010227B588D
:1055F00018437850B85840F00B00B85038680AF299
:105600009C4220F4FE6038609AF80610DAF8000038
:105610000CF0AEF8DAF80000416901F48051416104
:105620000CF076FB8004DAF800001AD50BF0B8FC19
:10563000DAF800000CF02CFB8AF80700DAF80040DA
:1056400001F002FB9AF80720014620460CF084FD89
:10565000504600F079FADAF80000416901F400518F
:1056600041610CF055FB000706D4DAF800000CF09D
:105670004FFB00060DD437E0504600F081FADAF80F
:105680000000416901F0080141610CF041FB000696
:105690002AD50699886920F0800088619AF804006C
:1056A000022821D30AF515740AF11405012640F2E7
:1056B0007B2703E001362437864215D21AF80710FB
:1056C0000129F7D106F00F00320600EBC00005EB10
:1056D000800158BF04EB8001DAF800000CF0E8F913
:1056E0009AF80400E6E700BFDAF800000CF010FBBF
:1056F000C0024DD4DAF800000CF00AFB8002069DCF
:1057000040F17E809AF80410022928D305F5326012
:1057100001390AF51F72012306E000BF013900F1CB
:10572000200002F124021AD007681678012EF5D164
:10573000B7F1FF3FF2DCDAF8D46486EA1747FF07D7
:10574000ECD102F8013CAF6947F08007AF616F69A7
:105750003F06E3D40599486840F400704860DAF8E1
:105760000000416901F4001141610CF0D1FA4000E0
:105770004CD55046FFF76CFADAF80000416901F0A9
:10578000804141610CF0C4FA40077FF5A2AB44E0D0
:105790009AF80400022827D306990AF1140401F5A7
:1057A00012650AF13B064FF00108012706E000BF31
:1057B00001372035874206F1240615D22968727810
:1057C000012AF5D1B1F1FF3FF2DC07F00F0086F8B6
:1057D000008000EBC00004EB8001DAF800000CF060
:1057E00067F99AF80400E3E7DAF80000416901F488
:1057F000801141610CF08CFA8002069D3FF582AF6A
:10580000DAF800000CF084FA4000B2D4DAF80000B4
:105810000CF07EFA40077FF55CABDAF800004468D4
:10582000610704D55046FFF72FFADAF80000416807
:105830002143416007B0BDE8F08F00000000000088
:10584000D0F8E0040AF034BFD0F8E0040AF048BF12
:10585000002800F02781F0B581B0044690F8950447
:1058600028B9002084F89404204600F031F9032080
:1058700084F8950420680BF073FFD4E90001267CBE
:10588000D4E9022300960BF09BFB002840F0048132
:10589000206800210CF098FA002840F0FD8094F870
:1058A00004E0BEF1000F00F0EE80BEF1040F0EF038
:1058B000030C4FF0000241D30EF0FC03A4F1900062
:1058C00003250121EE1E80F8A460A0F8BE60AE1E84
:1058D00080F8C8606F1CA0F8E2606E1E80F8EC6073
:1058E0009F42A0F8066105F1040680F8A51080F833
:1058F000A820C0E92B22C0F8B42080F8C91080F895
:10590000CC20C0E93422C0F8D82080F8ED1080F80F
:10591000F020C0E93D22C0F8FC2080F8111180F889
:105920001051A0F82A51354680F81421C0E94622CA
:10593000C0F8202100F19000C4D1F21EBCF1000F8C
:1059400032D002EBC20104F114000123BCF1010FBB
:1059500000EB810500F821204FF000016B706A8395
:105960002971C5E9021129611ED0551CBCF1020F35
:1059700005EBC50600EB860700F826507B707D839B
:105980003971C7E9021139610ED0911C012501EB73
:10599000C10200EB820300F8221000205D705983E1
:1059A0001871C3E902001861BEF1000F6BD0BEF19F
:1059B000040F4FF0000236D30EF0FC000323214603
:1059C000DF1E81F854729F1E81F878725F1E81F885
:1059D0009C725F1C1D1D81F85522874281F8582258
:1059E000C1E99722C1F8642281F8792281F87C22EA
:1059F000C1E9A022C1F8882281F89D2281F8A02265
:105A0000C1E9A922C1F8AC2281F8C12281F8C032D3
:105A10002B4681F8C422C1E9B222C1F8D02201F19B
:105A20009001CDD1EA1EBCF1000F2CD002EBC203D5
:105A300004F515700021BCF1010F00EB830700F89D
:105A4000232079703971C7E9021139611BD0531CC9
:105A5000BCF1020F03EBC30700EB870600F8273009
:105A600071703171C6E9021131610CD0911C0027AF
:105A700001EBC10200EB820300F822105F701F717E
:105A8000C3E902771F61D4E90001277CD4E902232E
:105A900000970BF00DFC38B1022084F8950401202A
:105AA00001B0F0BD0120704700206074012084F82F
:105AB0009504207B012802D12046FFF745F8206895
:105AC0000BF0E6FB002001B0F0BD0000000000007C
:105AD00010B5B0B002A9044601F10800B021FAF7F0
